{
	"TokenDistributor_flattened.sol": {
		"TokenDistributor": {
			"abi": [
				{
					"inputs": [
						{
							"internalType": "address",
							"name": "_educationalToken",
							"type": "address"
						},
						{
							"internalType": "address",
							"name": "initialOwner",
							"type": "address"
						}
					],
					"stateMutability": "nonpayable",
					"type": "constructor"
				},
				{
					"inputs": [
						{
							"internalType": "address",
							"name": "owner",
							"type": "address"
						}
					],
					"name": "OwnableInvalidOwner",
					"type": "error"
				},
				{
					"inputs": [
						{
							"internalType": "address",
							"name": "account",
							"type": "address"
						}
					],
					"name": "OwnableUnauthorizedAccount",
					"type": "error"
				},
				{
					"anonymous": false,
					"inputs": [
						{
							"indexed": true,
							"internalType": "address",
							"name": "previousOwner",
							"type": "address"
						},
						{
							"indexed": true,
							"internalType": "address",
							"name": "newOwner",
							"type": "address"
						}
					],
					"name": "OwnershipTransferred",
					"type": "event"
				},
				{
					"anonymous": false,
					"inputs": [
						{
							"indexed": false,
							"internalType": "address[]",
							"name": "players",
							"type": "address[]"
						},
						{
							"indexed": false,
							"internalType": "uint256[]",
							"name": "rewards",
							"type": "uint256[]"
						}
					],
					"name": "RewardsDistributed",
					"type": "event"
				},
				{
					"inputs": [
						{
							"internalType": "address",
							"name": "student1",
							"type": "address"
						},
						{
							"internalType": "address",
							"name": "student2",
							"type": "address"
						},
						{
							"internalType": "address",
							"name": "student3",
							"type": "address"
						},
						{
							"internalType": "address[]",
							"name": "remainingStudents",
							"type": "address[]"
						}
					],
					"name": "distributeTokens",
					"outputs": [],
					"stateMutability": "nonpayable",
					"type": "function"
				},
				{
					"inputs": [],
					"name": "educationalToken",
					"outputs": [
						{
							"internalType": "contract IERC20",
							"name": "",
							"type": "address"
						}
					],
					"stateMutability": "view",
					"type": "function"
				},
				{
					"inputs": [
						{
							"internalType": "address",
							"name": "student",
							"type": "address"
						}
					],
					"name": "getStudentBalance",
					"outputs": [
						{
							"internalType": "uint256",
							"name": "",
							"type": "uint256"
						}
					],
					"stateMutability": "view",
					"type": "function"
				},
				{
					"inputs": [],
					"name": "owner",
					"outputs": [
						{
							"internalType": "address",
							"name": "",
							"type": "address"
						}
					],
					"stateMutability": "view",
					"type": "function"
				},
				{
					"inputs": [],
					"name": "renounceOwnership",
					"outputs": [],
					"stateMutability": "nonpayable",
					"type": "function"
				},
				{
					"inputs": [
						{
							"internalType": "address",
							"name": "newOwner",
							"type": "address"
						}
					],
					"name": "transferOwnership",
					"outputs": [],
					"stateMutability": "nonpayable",
					"type": "function"
				}
			],
			"devdoc": {
				"errors": {
					"OwnableInvalidOwner(address)": [
						{
							"details": "The owner is not a valid owner account. (eg. `address(0)`)"
						}
					],
					"OwnableUnauthorizedAccount(address)": [
						{
							"details": "The caller account is not authorized to perform an operation."
						}
					]
				},
				"kind": "dev",
				"methods": {
					"owner()": {
						"details": "Returns the address of the current owner."
					},
					"renounceOwnership()": {
						"details": "Leaves the contract without owner. It will not be possible to call `onlyOwner` functions. Can only be called by the current owner. NOTE: Renouncing ownership will leave the contract without an owner, thereby disabling any functionality that is only available to the owner."
					},
					"transferOwnership(address)": {
						"details": "Transfers ownership of the contract to a new account (`newOwner`). Can only be called by the current owner."
					}
				},
				"version": 1
			},
			"evm": {
				"assembly": "    /* \"TokenDistributor_flattened.sol\":72183:74421  contract TokenDistributor is Ownable {... */\n  mstore(0x40, 0x80)\n    /* \"TokenDistributor_flattened.sol\":72429:72573  constructor(address _educationalToken, address initialOwner) Ownable(initialOwner) {... */\n  callvalue\n  dup1\n  iszero\n  tag_1\n  jumpi\n  0x00\n  dup1\n  revert\ntag_1:\n  pop\n  mload(0x40)\n  sub(codesize, bytecodeSize)\n  dup1\n  bytecodeSize\n  dup4\n  codecopy\n  dup2\n  dup2\n  add\n  0x40\n  mstore\n  dup2\n  add\n  swap1\n  tag_2\n  swap2\n  swap1\n  tag_3\n  jump\t// in\ntag_2:\n    /* \"TokenDistributor_flattened.sol\":72498:72510  initialOwner */\n  dup1\n    /* \"TokenDistributor_flattened.sol\":2290:2291  0 */\n  0x00\n    /* \"TokenDistributor_flattened.sol\":2266:2292  initialOwner == address(0) */\n  0xffffffffffffffffffffffffffffffffffffffff\n  and\n    /* \"TokenDistributor_flattened.sol\":2266:2278  initialOwner */\n  dup2\n    /* \"TokenDistributor_flattened.sol\":2266:2292  initialOwner == address(0) */\n  0xffffffffffffffffffffffffffffffffffffffff\n  and\n  sub\n    /* \"TokenDistributor_flattened.sol\":2262:2357  if (initialOwner == address(0)) {... */\n  tag_7\n  jumpi\n    /* \"TokenDistributor_flattened.sol\":2343:2344  0 */\n  0x00\n    /* \"TokenDistributor_flattened.sol\":2315:2346  OwnableInvalidOwner(address(0)) */\n  mload(0x40)\n  0x1e4fbdf700000000000000000000000000000000000000000000000000000000\n  dup2\n  mstore\n  0x04\n  add\n  tag_8\n  swap2\n  swap1\n  tag_9\n  jump\t// in\ntag_8:\n  mload(0x40)\n  dup1\n  swap2\n  sub\n  swap1\n  revert\n    /* \"TokenDistributor_flattened.sol\":2262:2357  if (initialOwner == address(0)) {... */\ntag_7:\n    /* \"TokenDistributor_flattened.sol\":2366:2398  _transferOwnership(initialOwner) */\n  tag_10\n    /* \"TokenDistributor_flattened.sol\":2385:2397  initialOwner */\n  dup2\n    /* \"TokenDistributor_flattened.sol\":2366:2384  _transferOwnership */\n  shl(0x20, tag_11)\n    /* \"TokenDistributor_flattened.sol\":2366:2398  _transferOwnership(initialOwner) */\n  0x20\n  shr\n  jump\t// in\ntag_10:\n    /* \"TokenDistributor_flattened.sol\":2218:2405  constructor(address initialOwner) {... */\n  pop\n    /* \"TokenDistributor_flattened.sol\":72548:72565  _educationalToken */\n  dup2\n    /* \"TokenDistributor_flattened.sol\":72522:72538  educationalToken */\n  0x01\n  0x00\n    /* \"TokenDistributor_flattened.sol\":72522:72566  educationalToken = IERC20(_educationalToken) */\n  0x0100\n  exp\n  dup2\n  sload\n  dup2\n  0xffffffffffffffffffffffffffffffffffffffff\n  mul\n  not\n  and\n  swap1\n  dup4\n  0xffffffffffffffffffffffffffffffffffffffff\n  and\n  mul\n  or\n  swap1\n  sstore\n  pop\n    /* \"TokenDistributor_flattened.sol\":72429:72573  constructor(address _educationalToken, address initialOwner) Ownable(initialOwner) {... */\n  pop\n  pop\n    /* \"TokenDistributor_flattened.sol\":72183:74421  contract TokenDistributor is Ownable {... */\n  jump(tag_13)\n    /* \"TokenDistributor_flattened.sol\":3905:4092  function _transferOwnership(address newOwner) internal virtual {... */\ntag_11:\n    /* \"TokenDistributor_flattened.sol\":3978:3994  address oldOwner */\n  0x00\n    /* \"TokenDistributor_flattened.sol\":3997:4003  _owner */\n  dup1\n  0x00\n  swap1\n  sload\n  swap1\n  0x0100\n  exp\n  swap1\n  div\n  0xffffffffffffffffffffffffffffffffffffffff\n  and\n    /* \"TokenDistributor_flattened.sol\":3978:4003  address oldOwner = _owner */\n  swap1\n  pop\n    /* \"TokenDistributor_flattened.sol\":4022:4030  newOwner */\n  dup2\n    /* \"TokenDistributor_flattened.sol\":4013:4019  _owner */\n  0x00\n  dup1\n    /* \"TokenDistributor_flattened.sol\":4013:4030  _owner = newOwner */\n  0x0100\n  exp\n  dup2\n  sload\n  dup2\n  0xffffffffffffffffffffffffffffffffffffffff\n  mul\n  not\n  and\n  swap1\n  dup4\n  0xffffffffffffffffffffffffffffffffffffffff\n  and\n  mul\n  or\n  swap1\n  sstore\n  pop\n    /* \"TokenDistributor_flattened.sol\":4076:4084  newOwner */\n  dup2\n    /* \"TokenDistributor_flattened.sol\":4045:4085  OwnershipTransferred(oldOwner, newOwner) */\n  0xffffffffffffffffffffffffffffffffffffffff\n  and\n    /* \"TokenDistributor_flattened.sol\":4066:4074  oldOwner */\n  dup2\n    /* \"TokenDistributor_flattened.sol\":4045:4085  OwnershipTransferred(oldOwner, newOwner) */\n  0xffffffffffffffffffffffffffffffffffffffff\n  and\n  0x8be0079c531659141344cd1fd0a4f28419497f9722a3daafe3b4186f6b6457e0\n  mload(0x40)\n  mload(0x40)\n  dup1\n  swap2\n  sub\n  swap1\n  log3\n    /* \"TokenDistributor_flattened.sol\":3968:4092  {... */\n  pop\n    /* \"TokenDistributor_flattened.sol\":3905:4092  function _transferOwnership(address newOwner) internal virtual {... */\n  pop\n  jump\t// out\n    /* \"#utility.yul\":88:205   */\ntag_16:\n    /* \"#utility.yul\":197:198   */\n  0x00\n    /* \"#utility.yul\":194:195   */\n  dup1\n    /* \"#utility.yul\":187:199   */\n  revert\n    /* \"#utility.yul\":334:460   */\ntag_18:\n    /* \"#utility.yul\":371:378   */\n  0x00\n    /* \"#utility.yul\":411:453   */\n  0xffffffffffffffffffffffffffffffffffffffff\n    /* \"#utility.yul\":404:409   */\n  dup3\n    /* \"#utility.yul\":400:454   */\n  and\n    /* \"#utility.yul\":389:454   */\n  swap1\n  pop\n    /* \"#utility.yul\":334:460   */\n  swap2\n  swap1\n  pop\n  jump\t// out\n    /* \"#utility.yul\":466:562   */\ntag_19:\n    /* \"#utility.yul\":503:510   */\n  0x00\n    /* \"#utility.yul\":532:556   */\n  tag_29\n    /* \"#utility.yul\":550:555   */\n  dup3\n    /* \"#utility.yul\":532:556   */\n  tag_18\n  jump\t// in\ntag_29:\n    /* \"#utility.yul\":521:556   */\n  swap1\n  pop\n    /* \"#utility.yul\":466:562   */\n  swap2\n  swap1\n  pop\n  jump\t// out\n    /* \"#utility.yul\":568:690   */\ntag_20:\n    /* \"#utility.yul\":641:665   */\n  tag_31\n    /* \"#utility.yul\":659:664   */\n  dup2\n    /* \"#utility.yul\":641:665   */\n  tag_19\n  jump\t// in\ntag_31:\n    /* \"#utility.yul\":634:639   */\n  dup2\n    /* \"#utility.yul\":631:666   */\n  eq\n    /* \"#utility.yul\":621:684   */\n  tag_32\n  jumpi\n    /* \"#utility.yul\":680:681   */\n  0x00\n    /* \"#utility.yul\":677:678   */\n  dup1\n    /* \"#utility.yul\":670:682   */\n  revert\n    /* \"#utility.yul\":621:684   */\ntag_32:\n    /* \"#utility.yul\":568:690   */\n  pop\n  jump\t// out\n    /* \"#utility.yul\":696:839   */\ntag_21:\n    /* \"#utility.yul\":753:758   */\n  0x00\n    /* \"#utility.yul\":784:790   */\n  dup2\n    /* \"#utility.yul\":778:791   */\n  mload\n    /* \"#utility.yul\":769:791   */\n  swap1\n  pop\n    /* \"#utility.yul\":800:833   */\n  tag_34\n    /* \"#utility.yul\":827:832   */\n  dup2\n    /* \"#utility.yul\":800:833   */\n  tag_20\n  jump\t// in\ntag_34:\n    /* \"#utility.yul\":696:839   */\n  swap3\n  swap2\n  pop\n  pop\n  jump\t// out\n    /* \"#utility.yul\":845:1352   */\ntag_3:\n    /* \"#utility.yul\":924:930   */\n  0x00\n    /* \"#utility.yul\":932:938   */\n  dup1\n    /* \"#utility.yul\":981:983   */\n  0x40\n    /* \"#utility.yul\":969:978   */\n  dup4\n    /* \"#utility.yul\":960:967   */\n  dup6\n    /* \"#utility.yul\":956:979   */\n  sub\n    /* \"#utility.yul\":952:984   */\n  slt\n    /* \"#utility.yul\":949:1068   */\n  iszero\n  tag_36\n  jumpi\n    /* \"#utility.yul\":987:1066   */\n  tag_37\n  tag_16\n  jump\t// in\ntag_37:\n    /* \"#utility.yul\":949:1068   */\ntag_36:\n    /* \"#utility.yul\":1107:1108   */\n  0x00\n    /* \"#utility.yul\":1132:1196   */\n  tag_38\n    /* \"#utility.yul\":1188:1195   */\n  dup6\n    /* \"#utility.yul\":1179:1185   */\n  dup3\n    /* \"#utility.yul\":1168:1177   */\n  dup7\n    /* \"#utility.yul\":1164:1186   */\n  add\n    /* \"#utility.yul\":1132:1196   */\n  tag_21\n  jump\t// in\ntag_38:\n    /* \"#utility.yul\":1122:1196   */\n  swap3\n  pop\n    /* \"#utility.yul\":1078:1206   */\n  pop\n    /* \"#utility.yul\":1245:1247   */\n  0x20\n    /* \"#utility.yul\":1271:1335   */\n  tag_39\n    /* \"#utility.yul\":1327:1334   */\n  dup6\n    /* \"#utility.yul\":1318:1324   */\n  dup3\n    /* \"#utility.yul\":1307:1316   */\n  dup7\n    /* \"#utility.yul\":1303:1325   */\n  add\n    /* \"#utility.yul\":1271:1335   */\n  tag_21\n  jump\t// in\ntag_39:\n    /* \"#utility.yul\":1261:1335   */\n  swap2\n  pop\n    /* \"#utility.yul\":1216:1345   */\n  pop\n    /* \"#utility.yul\":845:1352   */\n  swap3\n  pop\n  swap3\n  swap1\n  pop\n  jump\t// out\n    /* \"#utility.yul\":1358:1476   */\ntag_22:\n    /* \"#utility.yul\":1445:1469   */\n  tag_41\n    /* \"#utility.yul\":1463:1468   */\n  dup2\n    /* \"#utility.yul\":1445:1469   */\n  tag_19\n  jump\t// in\ntag_41:\n    /* \"#utility.yul\":1440:1443   */\n  dup3\n    /* \"#utility.yul\":1433:1470   */\n  mstore\n    /* \"#utility.yul\":1358:1476   */\n  pop\n  pop\n  jump\t// out\n    /* \"#utility.yul\":1482:1704   */\ntag_9:\n    /* \"#utility.yul\":1575:1579   */\n  0x00\n    /* \"#utility.yul\":1613:1615   */\n  0x20\n    /* \"#utility.yul\":1602:1611   */\n  dup3\n    /* \"#utility.yul\":1598:1616   */\n  add\n    /* \"#utility.yul\":1590:1616   */\n  swap1\n  pop\n    /* \"#utility.yul\":1626:1697   */\n  tag_43\n    /* \"#utility.yul\":1694:1695   */\n  0x00\n    /* \"#utility.yul\":1683:1692   */\n  dup4\n    /* \"#utility.yul\":1679:1696   */\n  add\n    /* \"#utility.yul\":1670:1676   */\n  dup5\n    /* \"#utility.yul\":1626:1697   */\n  tag_22\n  jump\t// in\ntag_43:\n    /* \"#utility.yul\":1482:1704   */\n  swap3\n  swap2\n  pop\n  pop\n  jump\t// out\n    /* \"TokenDistributor_flattened.sol\":72183:74421  contract TokenDistributor is Ownable {... */\ntag_13:\n  dataSize(sub_0)\n  dup1\n  dataOffset(sub_0)\n  0x00\n  codecopy\n  0x00\n  return\nstop\n\nsub_0: assembly {\n        /* \"TokenDistributor_flattened.sol\":72183:74421  contract TokenDistributor is Ownable {... */\n      mstore(0x40, 0x80)\n      callvalue\n      dup1\n      iszero\n      tag_1\n      jumpi\n      0x00\n      dup1\n      revert\n    tag_1:\n      pop\n      jumpi(tag_2, lt(calldatasize, 0x04))\n      shr(0xe0, calldataload(0x00))\n      dup1\n      0x08b9ddd8\n      eq\n      tag_3\n      jumpi\n      dup1\n      0x489f67de\n      eq\n      tag_4\n      jumpi\n      dup1\n      0x52bc412e\n      eq\n      tag_5\n      jumpi\n      dup1\n      0x715018a6\n      eq\n      tag_6\n      jumpi\n      dup1\n      0x8da5cb5b\n      eq\n      tag_7\n      jumpi\n      dup1\n      0xf2fde38b\n      eq\n      tag_8\n      jumpi\n    tag_2:\n      0x00\n      dup1\n      revert\n        /* \"TokenDistributor_flattened.sol\":74286:74419  function getStudentBalance(address student) public view returns (uint256) {... */\n    tag_3:\n      tag_9\n      0x04\n      dup1\n      calldatasize\n      sub\n      dup2\n      add\n      swap1\n      tag_10\n      swap2\n      swap1\n      tag_11\n      jump\t// in\n    tag_10:\n      tag_12\n      jump\t// in\n    tag_9:\n      mload(0x40)\n      tag_13\n      swap2\n      swap1\n      tag_14\n      jump\t// in\n    tag_13:\n      mload(0x40)\n      dup1\n      swap2\n      sub\n      swap1\n      return\n        /* \"TokenDistributor_flattened.sol\":72259:72289  IERC20 public educationalToken */\n    tag_4:\n      tag_15\n      tag_16\n      jump\t// in\n    tag_15:\n      mload(0x40)\n      tag_17\n      swap2\n      swap1\n      tag_18\n      jump\t// in\n    tag_17:\n      mload(0x40)\n      dup1\n      swap2\n      sub\n      swap1\n      return\n        /* \"TokenDistributor_flattened.sol\":72583:73096  function distributeTokens(address student1, address student2, address student3, address[] memory remainingStudents) public onlyOwner {... */\n    tag_5:\n      tag_19\n      0x04\n      dup1\n      calldatasize\n      sub\n      dup2\n      add\n      swap1\n      tag_20\n      swap2\n      swap1\n      tag_21\n      jump\t// in\n    tag_20:\n      tag_22\n      jump\t// in\n    tag_19:\n      stop\n        /* \"TokenDistributor_flattened.sol\":3286:3387  function renounceOwnership() public virtual onlyOwner {... */\n    tag_6:\n      tag_23\n      tag_24\n      jump\t// in\n    tag_23:\n      stop\n        /* \"TokenDistributor_flattened.sol\":2631:2716  function owner() public view virtual returns (address) {... */\n    tag_7:\n      tag_25\n      tag_26\n      jump\t// in\n    tag_25:\n      mload(0x40)\n      tag_27\n      swap2\n      swap1\n      tag_28\n      jump\t// in\n    tag_27:\n      mload(0x40)\n      dup1\n      swap2\n      sub\n      swap1\n      return\n        /* \"TokenDistributor_flattened.sol\":3536:3751  function transferOwnership(address newOwner) public virtual onlyOwner {... */\n    tag_8:\n      tag_29\n      0x04\n      dup1\n      calldatasize\n      sub\n      dup2\n      add\n      swap1\n      tag_30\n      swap2\n      swap1\n      tag_11\n      jump\t// in\n    tag_30:\n      tag_31\n      jump\t// in\n    tag_29:\n      stop\n        /* \"TokenDistributor_flattened.sol\":74286:74419  function getStudentBalance(address student) public view returns (uint256) {... */\n    tag_12:\n        /* \"TokenDistributor_flattened.sol\":74351:74358  uint256 */\n      0x00\n        /* \"TokenDistributor_flattened.sol\":74377:74393  educationalToken */\n      0x01\n      0x00\n      swap1\n      sload\n      swap1\n      0x0100\n      exp\n      swap1\n      div\n      0xffffffffffffffffffffffffffffffffffffffff\n      and\n        /* \"TokenDistributor_flattened.sol\":74377:74403  educationalToken.balanceOf */\n      0xffffffffffffffffffffffffffffffffffffffff\n      and\n      0x70a08231\n        /* \"TokenDistributor_flattened.sol\":74404:74411  student */\n      dup4\n        /* \"TokenDistributor_flattened.sol\":74377:74412  educationalToken.balanceOf(student) */\n      mload(0x40)\n      dup3\n      0xffffffff\n      and\n      0xe0\n      shl\n      dup2\n      mstore\n      0x04\n      add\n      tag_33\n      swap2\n      swap1\n      tag_28\n      jump\t// in\n    tag_33:\n      0x20\n      mload(0x40)\n      dup1\n      dup4\n      sub\n      dup2\n      dup7\n      gas\n      staticcall\n      iszero\n      dup1\n      iszero\n      tag_35\n      jumpi\n      returndatasize\n      0x00\n      dup1\n      returndatacopy\n      revert(0x00, returndatasize)\n    tag_35:\n      pop\n      pop\n      pop\n      pop\n      mload(0x40)\n      returndatasize\n      not(0x1f)\n      0x1f\n      dup3\n      add\n      and\n      dup3\n      add\n      dup1\n      0x40\n      mstore\n      pop\n      dup2\n      add\n      swap1\n      tag_36\n      swap2\n      swap1\n      tag_37\n      jump\t// in\n    tag_36:\n        /* \"TokenDistributor_flattened.sol\":74370:74412  return educationalToken.balanceOf(student) */\n      swap1\n      pop\n        /* \"TokenDistributor_flattened.sol\":74286:74419  function getStudentBalance(address student) public view returns (uint256) {... */\n      swap2\n      swap1\n      pop\n      jump\t// out\n        /* \"TokenDistributor_flattened.sol\":72259:72289  IERC20 public educationalToken */\n    tag_16:\n      0x01\n      0x00\n      swap1\n      sload\n      swap1\n      0x0100\n      exp\n      swap1\n      div\n      0xffffffffffffffffffffffffffffffffffffffff\n      and\n      dup2\n      jump\t// out\n        /* \"TokenDistributor_flattened.sol\":72583:73096  function distributeTokens(address student1, address student2, address student3, address[] memory remainingStudents) public onlyOwner {... */\n    tag_22:\n        /* \"TokenDistributor_flattened.sol\":2524:2537  _checkOwner() */\n      tag_39\n        /* \"TokenDistributor_flattened.sol\":2524:2535  _checkOwner */\n      tag_40\n        /* \"TokenDistributor_flattened.sol\":2524:2537  _checkOwner() */\n      jump\t// in\n    tag_39:\n        /* \"TokenDistributor_flattened.sol\":72726:72742  educationalToken */\n      0x01\n      0x00\n      swap1\n      sload\n      swap1\n      0x0100\n      exp\n      swap1\n      div\n      0xffffffffffffffffffffffffffffffffffffffff\n      and\n        /* \"TokenDistributor_flattened.sol\":72726:72755  educationalToken.transferFrom */\n      0xffffffffffffffffffffffffffffffffffffffff\n      and\n      0x23b872dd\n        /* \"TokenDistributor_flattened.sol\":72756:72766  msg.sender */\n      caller\n        /* \"TokenDistributor_flattened.sol\":72768:72776  student1 */\n      dup7\n        /* \"TokenDistributor_flattened.sol\":72778:72787  10 * 1e18 */\n      0x8ac7230489e80000\n        /* \"TokenDistributor_flattened.sol\":72726:72788  educationalToken.transferFrom(msg.sender, student1, 10 * 1e18) */\n      mload(0x40)\n      dup5\n      0xffffffff\n      and\n      0xe0\n      shl\n      dup2\n      mstore\n      0x04\n      add\n      tag_42\n      swap4\n      swap3\n      swap2\n      swap1\n      tag_43\n      jump\t// in\n    tag_42:\n      0x20\n      mload(0x40)\n      dup1\n      dup4\n      sub\n      dup2\n      0x00\n      dup8\n      gas\n      call\n      iszero\n      dup1\n      iszero\n      tag_45\n      jumpi\n      returndatasize\n      0x00\n      dup1\n      returndatacopy\n      revert(0x00, returndatasize)\n    tag_45:\n      pop\n      pop\n      pop\n      pop\n      mload(0x40)\n      returndatasize\n      not(0x1f)\n      0x1f\n      dup3\n      add\n      and\n      dup3\n      add\n      dup1\n      0x40\n      mstore\n      pop\n      dup2\n      add\n      swap1\n      tag_46\n      swap2\n      swap1\n      tag_47\n      jump\t// in\n    tag_46:\n      pop\n        /* \"TokenDistributor_flattened.sol\":72798:72814  educationalToken */\n      0x01\n      0x00\n      swap1\n      sload\n      swap1\n      0x0100\n      exp\n      swap1\n      div\n      0xffffffffffffffffffffffffffffffffffffffff\n      and\n        /* \"TokenDistributor_flattened.sol\":72798:72827  educationalToken.transferFrom */\n      0xffffffffffffffffffffffffffffffffffffffff\n      and\n      0x23b872dd\n        /* \"TokenDistributor_flattened.sol\":72828:72838  msg.sender */\n      caller\n        /* \"TokenDistributor_flattened.sol\":72840:72848  student2 */\n      dup6\n        /* \"TokenDistributor_flattened.sol\":72850:72858  8 * 1e18 */\n      0x6f05b59d3b200000\n        /* \"TokenDistributor_flattened.sol\":72798:72859  educationalToken.transferFrom(msg.sender, student2, 8 * 1e18) */\n      mload(0x40)\n      dup5\n      0xffffffff\n      and\n      0xe0\n      shl\n      dup2\n      mstore\n      0x04\n      add\n      tag_48\n      swap4\n      swap3\n      swap2\n      swap1\n      tag_49\n      jump\t// in\n    tag_48:\n      0x20\n      mload(0x40)\n      dup1\n      dup4\n      sub\n      dup2\n      0x00\n      dup8\n      gas\n      call\n      iszero\n      dup1\n      iszero\n      tag_51\n      jumpi\n      returndatasize\n      0x00\n      dup1\n      returndatacopy\n      revert(0x00, returndatasize)\n    tag_51:\n      pop\n      pop\n      pop\n      pop\n      mload(0x40)\n      returndatasize\n      not(0x1f)\n      0x1f\n      dup3\n      add\n      and\n      dup3\n      add\n      dup1\n      0x40\n      mstore\n      pop\n      dup2\n      add\n      swap1\n      tag_52\n      swap2\n      swap1\n      tag_47\n      jump\t// in\n    tag_52:\n      pop\n        /* \"TokenDistributor_flattened.sol\":72869:72885  educationalToken */\n      0x01\n      0x00\n      swap1\n      sload\n      swap1\n      0x0100\n      exp\n      swap1\n      div\n      0xffffffffffffffffffffffffffffffffffffffff\n      and\n        /* \"TokenDistributor_flattened.sol\":72869:72898  educationalToken.transferFrom */\n      0xffffffffffffffffffffffffffffffffffffffff\n      and\n      0x23b872dd\n        /* \"TokenDistributor_flattened.sol\":72899:72909  msg.sender */\n      caller\n        /* \"TokenDistributor_flattened.sol\":72911:72919  student3 */\n      dup5\n        /* \"TokenDistributor_flattened.sol\":72921:72929  6 * 1e18 */\n      0x53444835ec580000\n        /* \"TokenDistributor_flattened.sol\":72869:72930  educationalToken.transferFrom(msg.sender, student3, 6 * 1e18) */\n      mload(0x40)\n      dup5\n      0xffffffff\n      and\n      0xe0\n      shl\n      dup2\n      mstore\n      0x04\n      add\n      tag_53\n      swap4\n      swap3\n      swap2\n      swap1\n      tag_54\n      jump\t// in\n    tag_53:\n      0x20\n      mload(0x40)\n      dup1\n      dup4\n      sub\n      dup2\n      0x00\n      dup8\n      gas\n      call\n      iszero\n      dup1\n      iszero\n      tag_56\n      jumpi\n      returndatasize\n      0x00\n      dup1\n      returndatacopy\n      revert(0x00, returndatasize)\n    tag_56:\n      pop\n      pop\n      pop\n      pop\n      mload(0x40)\n      returndatasize\n      not(0x1f)\n      0x1f\n      dup3\n      add\n      and\n      dup3\n      add\n      dup1\n      0x40\n      mstore\n      pop\n      dup2\n      add\n      swap1\n      tag_57\n      swap2\n      swap1\n      tag_47\n      jump\t// in\n    tag_57:\n      pop\n        /* \"TokenDistributor_flattened.sol\":72946:72952  uint i */\n      0x00\n        /* \"TokenDistributor_flattened.sol\":72941:73090  for (uint i = 0; i < remainingStudents.length; i++){... */\n    tag_58:\n        /* \"TokenDistributor_flattened.sol\":72962:72979  remainingStudents */\n      dup2\n        /* \"TokenDistributor_flattened.sol\":72962:72986  remainingStudents.length */\n      mload\n        /* \"TokenDistributor_flattened.sol\":72958:72959  i */\n      dup2\n        /* \"TokenDistributor_flattened.sol\":72958:72986  i < remainingStudents.length */\n      lt\n        /* \"TokenDistributor_flattened.sol\":72941:73090  for (uint i = 0; i < remainingStudents.length; i++){... */\n      iszero\n      tag_59\n      jumpi\n        /* \"TokenDistributor_flattened.sol\":73006:73022  educationalToken */\n      0x01\n      0x00\n      swap1\n      sload\n      swap1\n      0x0100\n      exp\n      swap1\n      div\n      0xffffffffffffffffffffffffffffffffffffffff\n      and\n        /* \"TokenDistributor_flattened.sol\":73006:73035  educationalToken.transferFrom */\n      0xffffffffffffffffffffffffffffffffffffffff\n      and\n      0x23b872dd\n        /* \"TokenDistributor_flattened.sol\":73036:73046  msg.sender */\n      caller\n        /* \"TokenDistributor_flattened.sol\":73048:73065  remainingStudents */\n      dup5\n        /* \"TokenDistributor_flattened.sol\":73066:73067  i */\n      dup5\n        /* \"TokenDistributor_flattened.sol\":73048:73068  remainingStudents[i] */\n      dup2\n      mload\n      dup2\n      lt\n      tag_61\n      jumpi\n      tag_62\n      tag_63\n      jump\t// in\n    tag_62:\n    tag_61:\n      0x20\n      mul\n      0x20\n      add\n      add\n      mload\n        /* \"TokenDistributor_flattened.sol\":73070:73078  1 * 1e18 */\n      0x0de0b6b3a7640000\n        /* \"TokenDistributor_flattened.sol\":73006:73079  educationalToken.transferFrom(msg.sender, remainingStudents[i], 1 * 1e18) */\n      mload(0x40)\n      dup5\n      0xffffffff\n      and\n      0xe0\n      shl\n      dup2\n      mstore\n      0x04\n      add\n      tag_64\n      swap4\n      swap3\n      swap2\n      swap1\n      tag_65\n      jump\t// in\n    tag_64:\n      0x20\n      mload(0x40)\n      dup1\n      dup4\n      sub\n      dup2\n      0x00\n      dup8\n      gas\n      call\n      iszero\n      dup1\n      iszero\n      tag_67\n      jumpi\n      returndatasize\n      0x00\n      dup1\n      returndatacopy\n      revert(0x00, returndatasize)\n    tag_67:\n      pop\n      pop\n      pop\n      pop\n      mload(0x40)\n      returndatasize\n      not(0x1f)\n      0x1f\n      dup3\n      add\n      and\n      dup3\n      add\n      dup1\n      0x40\n      mstore\n      pop\n      dup2\n      add\n      swap1\n      tag_68\n      swap2\n      swap1\n      tag_47\n      jump\t// in\n    tag_68:\n      pop\n        /* \"TokenDistributor_flattened.sol\":72988:72991  i++ */\n      dup1\n      dup1\n      0x01\n      add\n      swap2\n      pop\n      pop\n        /* \"TokenDistributor_flattened.sol\":72941:73090  for (uint i = 0; i < remainingStudents.length; i++){... */\n      jump(tag_58)\n    tag_59:\n      pop\n        /* \"TokenDistributor_flattened.sol\":72583:73096  function distributeTokens(address student1, address student2, address student3, address[] memory remainingStudents) public onlyOwner {... */\n      pop\n      pop\n      pop\n      pop\n      jump\t// out\n        /* \"TokenDistributor_flattened.sol\":3286:3387  function renounceOwnership() public virtual onlyOwner {... */\n    tag_24:\n        /* \"TokenDistributor_flattened.sol\":2524:2537  _checkOwner() */\n      tag_70\n        /* \"TokenDistributor_flattened.sol\":2524:2535  _checkOwner */\n      tag_40\n        /* \"TokenDistributor_flattened.sol\":2524:2537  _checkOwner() */\n      jump\t// in\n    tag_70:\n        /* \"TokenDistributor_flattened.sol\":3350:3380  _transferOwnership(address(0)) */\n      tag_72\n        /* \"TokenDistributor_flattened.sol\":3377:3378  0 */\n      0x00\n        /* \"TokenDistributor_flattened.sol\":3350:3368  _transferOwnership */\n      tag_73\n        /* \"TokenDistributor_flattened.sol\":3350:3380  _transferOwnership(address(0)) */\n      jump\t// in\n    tag_72:\n        /* \"TokenDistributor_flattened.sol\":3286:3387  function renounceOwnership() public virtual onlyOwner {... */\n      jump\t// out\n        /* \"TokenDistributor_flattened.sol\":2631:2716  function owner() public view virtual returns (address) {... */\n    tag_26:\n        /* \"TokenDistributor_flattened.sol\":2677:2684  address */\n      0x00\n        /* \"TokenDistributor_flattened.sol\":2703:2709  _owner */\n      dup1\n      0x00\n      swap1\n      sload\n      swap1\n      0x0100\n      exp\n      swap1\n      div\n      0xffffffffffffffffffffffffffffffffffffffff\n      and\n        /* \"TokenDistributor_flattened.sol\":2696:2709  return _owner */\n      swap1\n      pop\n        /* \"TokenDistributor_flattened.sol\":2631:2716  function owner() public view virtual returns (address) {... */\n      swap1\n      jump\t// out\n        /* \"TokenDistributor_flattened.sol\":3536:3751  function transferOwnership(address newOwner) public virtual onlyOwner {... */\n    tag_31:\n        /* \"TokenDistributor_flattened.sol\":2524:2537  _checkOwner() */\n      tag_76\n        /* \"TokenDistributor_flattened.sol\":2524:2535  _checkOwner */\n      tag_40\n        /* \"TokenDistributor_flattened.sol\":2524:2537  _checkOwner() */\n      jump\t// in\n    tag_76:\n        /* \"TokenDistributor_flattened.sol\":3640:3641  0 */\n      0x00\n        /* \"TokenDistributor_flattened.sol\":3620:3642  newOwner == address(0) */\n      0xffffffffffffffffffffffffffffffffffffffff\n      and\n        /* \"TokenDistributor_flattened.sol\":3620:3628  newOwner */\n      dup2\n        /* \"TokenDistributor_flattened.sol\":3620:3642  newOwner == address(0) */\n      0xffffffffffffffffffffffffffffffffffffffff\n      and\n      sub\n        /* \"TokenDistributor_flattened.sol\":3616:3707  if (newOwner == address(0)) {... */\n      tag_78\n      jumpi\n        /* \"TokenDistributor_flattened.sol\":3693:3694  0 */\n      0x00\n        /* \"TokenDistributor_flattened.sol\":3665:3696  OwnableInvalidOwner(address(0)) */\n      mload(0x40)\n      0x1e4fbdf700000000000000000000000000000000000000000000000000000000\n      dup2\n      mstore\n      0x04\n      add\n      tag_79\n      swap2\n      swap1\n      tag_28\n      jump\t// in\n    tag_79:\n      mload(0x40)\n      dup1\n      swap2\n      sub\n      swap1\n      revert\n        /* \"TokenDistributor_flattened.sol\":3616:3707  if (newOwner == address(0)) {... */\n    tag_78:\n        /* \"TokenDistributor_flattened.sol\":3716:3744  _transferOwnership(newOwner) */\n      tag_80\n        /* \"TokenDistributor_flattened.sol\":3735:3743  newOwner */\n      dup2\n        /* \"TokenDistributor_flattened.sol\":3716:3734  _transferOwnership */\n      tag_73\n        /* \"TokenDistributor_flattened.sol\":3716:3744  _transferOwnership(newOwner) */\n      jump\t// in\n    tag_80:\n        /* \"TokenDistributor_flattened.sol\":3536:3751  function transferOwnership(address newOwner) public virtual onlyOwner {... */\n      pop\n      jump\t// out\n        /* \"TokenDistributor_flattened.sol\":2789:2951  function _checkOwner() internal view virtual {... */\n    tag_40:\n        /* \"TokenDistributor_flattened.sol\":2859:2871  _msgSender() */\n      tag_82\n        /* \"TokenDistributor_flattened.sol\":2859:2869  _msgSender */\n      tag_83\n        /* \"TokenDistributor_flattened.sol\":2859:2871  _msgSender() */\n      jump\t// in\n    tag_82:\n        /* \"TokenDistributor_flattened.sol\":2848:2871  owner() != _msgSender() */\n      0xffffffffffffffffffffffffffffffffffffffff\n      and\n        /* \"TokenDistributor_flattened.sol\":2848:2855  owner() */\n      tag_84\n        /* \"TokenDistributor_flattened.sol\":2848:2853  owner */\n      tag_26\n        /* \"TokenDistributor_flattened.sol\":2848:2855  owner() */\n      jump\t// in\n    tag_84:\n        /* \"TokenDistributor_flattened.sol\":2848:2871  owner() != _msgSender() */\n      0xffffffffffffffffffffffffffffffffffffffff\n      and\n      eq\n        /* \"TokenDistributor_flattened.sol\":2844:2945  if (owner() != _msgSender()) {... */\n      tag_85\n      jumpi\n        /* \"TokenDistributor_flattened.sol\":2921:2933  _msgSender() */\n      tag_86\n        /* \"TokenDistributor_flattened.sol\":2921:2931  _msgSender */\n      tag_83\n        /* \"TokenDistributor_flattened.sol\":2921:2933  _msgSender() */\n      jump\t// in\n    tag_86:\n        /* \"TokenDistributor_flattened.sol\":2894:2934  OwnableUnauthorizedAccount(_msgSender()) */\n      mload(0x40)\n      0x118cdaa700000000000000000000000000000000000000000000000000000000\n      dup2\n      mstore\n      0x04\n      add\n      tag_87\n      swap2\n      swap1\n      tag_28\n      jump\t// in\n    tag_87:\n      mload(0x40)\n      dup1\n      swap2\n      sub\n      swap1\n      revert\n        /* \"TokenDistributor_flattened.sol\":2844:2945  if (owner() != _msgSender()) {... */\n    tag_85:\n        /* \"TokenDistributor_flattened.sol\":2789:2951  function _checkOwner() internal view virtual {... */\n      jump\t// out\n        /* \"TokenDistributor_flattened.sol\":3905:4092  function _transferOwnership(address newOwner) internal virtual {... */\n    tag_73:\n        /* \"TokenDistributor_flattened.sol\":3978:3994  address oldOwner */\n      0x00\n        /* \"TokenDistributor_flattened.sol\":3997:4003  _owner */\n      dup1\n      0x00\n      swap1\n      sload\n      swap1\n      0x0100\n      exp\n      swap1\n      div\n      0xffffffffffffffffffffffffffffffffffffffff\n      and\n        /* \"TokenDistributor_flattened.sol\":3978:4003  address oldOwner = _owner */\n      swap1\n      pop\n        /* \"TokenDistributor_flattened.sol\":4022:4030  newOwner */\n      dup2\n        /* \"TokenDistributor_flattened.sol\":4013:4019  _owner */\n      0x00\n      dup1\n        /* \"TokenDistributor_flattened.sol\":4013:4030  _owner = newOwner */\n      0x0100\n      exp\n      dup2\n      sload\n      dup2\n      0xffffffffffffffffffffffffffffffffffffffff\n      mul\n      not\n      and\n      swap1\n      dup4\n      0xffffffffffffffffffffffffffffffffffffffff\n      and\n      mul\n      or\n      swap1\n      sstore\n      pop\n        /* \"TokenDistributor_flattened.sol\":4076:4084  newOwner */\n      dup2\n        /* \"TokenDistributor_flattened.sol\":4045:4085  OwnershipTransferred(oldOwner, newOwner) */\n      0xffffffffffffffffffffffffffffffffffffffff\n      and\n        /* \"TokenDistributor_flattened.sol\":4066:4074  oldOwner */\n      dup2\n        /* \"TokenDistributor_flattened.sol\":4045:4085  OwnershipTransferred(oldOwner, newOwner) */\n      0xffffffffffffffffffffffffffffffffffffffff\n      and\n      0x8be0079c531659141344cd1fd0a4f28419497f9722a3daafe3b4186f6b6457e0\n      mload(0x40)\n      mload(0x40)\n      dup1\n      swap2\n      sub\n      swap1\n      log3\n        /* \"TokenDistributor_flattened.sol\":3968:4092  {... */\n      pop\n        /* \"TokenDistributor_flattened.sol\":3905:4092  function _transferOwnership(address newOwner) internal virtual {... */\n      pop\n      jump\t// out\n        /* \"TokenDistributor_flattened.sol\":709:805  function _msgSender() internal view virtual returns (address) {... */\n    tag_83:\n        /* \"TokenDistributor_flattened.sol\":762:769  address */\n      0x00\n        /* \"TokenDistributor_flattened.sol\":788:798  msg.sender */\n      caller\n        /* \"TokenDistributor_flattened.sol\":781:798  return msg.sender */\n      swap1\n      pop\n        /* \"TokenDistributor_flattened.sol\":709:805  function _msgSender() internal view virtual returns (address) {... */\n      swap1\n      jump\t// out\n        /* \"#utility.yul\":7:82   */\n    tag_90:\n        /* \"#utility.yul\":40:46   */\n      0x00\n        /* \"#utility.yul\":73:75   */\n      0x40\n        /* \"#utility.yul\":67:76   */\n      mload\n        /* \"#utility.yul\":57:76   */\n      swap1\n      pop\n        /* \"#utility.yul\":7:82   */\n      swap1\n      jump\t// out\n        /* \"#utility.yul\":88:205   */\n    tag_91:\n        /* \"#utility.yul\":197:198   */\n      0x00\n        /* \"#utility.yul\":194:195   */\n      dup1\n        /* \"#utility.yul\":187:199   */\n      revert\n        /* \"#utility.yul\":211:328   */\n    tag_92:\n        /* \"#utility.yul\":320:321   */\n      0x00\n        /* \"#utility.yul\":317:318   */\n      dup1\n        /* \"#utility.yul\":310:322   */\n      revert\n        /* \"#utility.yul\":334:460   */\n    tag_93:\n        /* \"#utility.yul\":371:378   */\n      0x00\n        /* \"#utility.yul\":411:453   */\n      0xffffffffffffffffffffffffffffffffffffffff\n        /* \"#utility.yul\":404:409   */\n      dup3\n        /* \"#utility.yul\":400:454   */\n      and\n        /* \"#utility.yul\":389:454   */\n      swap1\n      pop\n        /* \"#utility.yul\":334:460   */\n      swap2\n      swap1\n      pop\n      jump\t// out\n        /* \"#utility.yul\":466:562   */\n    tag_94:\n        /* \"#utility.yul\":503:510   */\n      0x00\n        /* \"#utility.yul\":532:556   */\n      tag_137\n        /* \"#utility.yul\":550:555   */\n      dup3\n        /* \"#utility.yul\":532:556   */\n      tag_93\n      jump\t// in\n    tag_137:\n        /* \"#utility.yul\":521:556   */\n      swap1\n      pop\n        /* \"#utility.yul\":466:562   */\n      swap2\n      swap1\n      pop\n      jump\t// out\n        /* \"#utility.yul\":568:690   */\n    tag_95:\n        /* \"#utility.yul\":641:665   */\n      tag_139\n        /* \"#utility.yul\":659:664   */\n      dup2\n        /* \"#utility.yul\":641:665   */\n      tag_94\n      jump\t// in\n    tag_139:\n        /* \"#utility.yul\":634:639   */\n      dup2\n        /* \"#utility.yul\":631:666   */\n      eq\n        /* \"#utility.yul\":621:684   */\n      tag_140\n      jumpi\n        /* \"#utility.yul\":680:681   */\n      0x00\n        /* \"#utility.yul\":677:678   */\n      dup1\n        /* \"#utility.yul\":670:682   */\n      revert\n        /* \"#utility.yul\":621:684   */\n    tag_140:\n        /* \"#utility.yul\":568:690   */\n      pop\n      jump\t// out\n        /* \"#utility.yul\":696:835   */\n    tag_96:\n        /* \"#utility.yul\":742:747   */\n      0x00\n        /* \"#utility.yul\":780:786   */\n      dup2\n        /* \"#utility.yul\":767:787   */\n      calldataload\n        /* \"#utility.yul\":758:787   */\n      swap1\n      pop\n        /* \"#utility.yul\":796:829   */\n      tag_142\n        /* \"#utility.yul\":823:828   */\n      dup2\n        /* \"#utility.yul\":796:829   */\n      tag_95\n      jump\t// in\n    tag_142:\n        /* \"#utility.yul\":696:835   */\n      swap3\n      swap2\n      pop\n      pop\n      jump\t// out\n        /* \"#utility.yul\":841:1170   */\n    tag_11:\n        /* \"#utility.yul\":900:906   */\n      0x00\n        /* \"#utility.yul\":949:951   */\n      0x20\n        /* \"#utility.yul\":937:946   */\n      dup3\n        /* \"#utility.yul\":928:935   */\n      dup5\n        /* \"#utility.yul\":924:947   */\n      sub\n        /* \"#utility.yul\":920:952   */\n      slt\n        /* \"#utility.yul\":917:1036   */\n      iszero\n      tag_144\n      jumpi\n        /* \"#utility.yul\":955:1034   */\n      tag_145\n      tag_91\n      jump\t// in\n    tag_145:\n        /* \"#utility.yul\":917:1036   */\n    tag_144:\n        /* \"#utility.yul\":1075:1076   */\n      0x00\n        /* \"#utility.yul\":1100:1153   */\n      tag_146\n        /* \"#utility.yul\":1145:1152   */\n      dup5\n        /* \"#utility.yul\":1136:1142   */\n      dup3\n        /* \"#utility.yul\":1125:1134   */\n      dup6\n        /* \"#utility.yul\":1121:1143   */\n      add\n        /* \"#utility.yul\":1100:1153   */\n      tag_96\n      jump\t// in\n    tag_146:\n        /* \"#utility.yul\":1090:1153   */\n      swap2\n      pop\n        /* \"#utility.yul\":1046:1163   */\n      pop\n        /* \"#utility.yul\":841:1170   */\n      swap3\n      swap2\n      pop\n      pop\n      jump\t// out\n        /* \"#utility.yul\":1176:1253   */\n    tag_97:\n        /* \"#utility.yul\":1213:1220   */\n      0x00\n        /* \"#utility.yul\":1242:1247   */\n      dup2\n        /* \"#utility.yul\":1231:1247   */\n      swap1\n      pop\n        /* \"#utility.yul\":1176:1253   */\n      swap2\n      swap1\n      pop\n      jump\t// out\n        /* \"#utility.yul\":1259:1377   */\n    tag_98:\n        /* \"#utility.yul\":1346:1370   */\n      tag_149\n        /* \"#utility.yul\":1364:1369   */\n      dup2\n        /* \"#utility.yul\":1346:1370   */\n      tag_97\n      jump\t// in\n    tag_149:\n        /* \"#utility.yul\":1341:1344   */\n      dup3\n        /* \"#utility.yul\":1334:1371   */\n      mstore\n        /* \"#utility.yul\":1259:1377   */\n      pop\n      pop\n      jump\t// out\n        /* \"#utility.yul\":1383:1605   */\n    tag_14:\n        /* \"#utility.yul\":1476:1480   */\n      0x00\n        /* \"#utility.yul\":1514:1516   */\n      0x20\n        /* \"#utility.yul\":1503:1512   */\n      dup3\n        /* \"#utility.yul\":1499:1517   */\n      add\n        /* \"#utility.yul\":1491:1517   */\n      swap1\n      pop\n        /* \"#utility.yul\":1527:1598   */\n      tag_151\n        /* \"#utility.yul\":1595:1596   */\n      0x00\n        /* \"#utility.yul\":1584:1593   */\n      dup4\n        /* \"#utility.yul\":1580:1597   */\n      add\n        /* \"#utility.yul\":1571:1577   */\n      dup5\n        /* \"#utility.yul\":1527:1598   */\n      tag_98\n      jump\t// in\n    tag_151:\n        /* \"#utility.yul\":1383:1605   */\n      swap3\n      swap2\n      pop\n      pop\n      jump\t// out\n        /* \"#utility.yul\":1611:1671   */\n    tag_99:\n        /* \"#utility.yul\":1639:1642   */\n      0x00\n        /* \"#utility.yul\":1660:1665   */\n      dup2\n        /* \"#utility.yul\":1653:1665   */\n      swap1\n      pop\n        /* \"#utility.yul\":1611:1671   */\n      swap2\n      swap1\n      pop\n      jump\t// out\n        /* \"#utility.yul\":1677:1819   */\n    tag_100:\n        /* \"#utility.yul\":1727:1736   */\n      0x00\n        /* \"#utility.yul\":1760:1813   */\n      tag_154\n        /* \"#utility.yul\":1778:1812   */\n      tag_155\n        /* \"#utility.yul\":1787:1811   */\n      tag_156\n        /* \"#utility.yul\":1805:1810   */\n      dup5\n        /* \"#utility.yul\":1787:1811   */\n      tag_93\n      jump\t// in\n    tag_156:\n        /* \"#utility.yul\":1778:1812   */\n      tag_99\n      jump\t// in\n    tag_155:\n        /* \"#utility.yul\":1760:1813   */\n      tag_93\n      jump\t// in\n    tag_154:\n        /* \"#utility.yul\":1747:1813   */\n      swap1\n      pop\n        /* \"#utility.yul\":1677:1819   */\n      swap2\n      swap1\n      pop\n      jump\t// out\n        /* \"#utility.yul\":1825:1951   */\n    tag_101:\n        /* \"#utility.yul\":1875:1884   */\n      0x00\n        /* \"#utility.yul\":1908:1945   */\n      tag_158\n        /* \"#utility.yul\":1939:1944   */\n      dup3\n        /* \"#utility.yul\":1908:1945   */\n      tag_100\n      jump\t// in\n    tag_158:\n        /* \"#utility.yul\":1895:1945   */\n      swap1\n      pop\n        /* \"#utility.yul\":1825:1951   */\n      swap2\n      swap1\n      pop\n      jump\t// out\n        /* \"#utility.yul\":1957:2098   */\n    tag_102:\n        /* \"#utility.yul\":2022:2031   */\n      0x00\n        /* \"#utility.yul\":2055:2092   */\n      tag_160\n        /* \"#utility.yul\":2086:2091   */\n      dup3\n        /* \"#utility.yul\":2055:2092   */\n      tag_101\n      jump\t// in\n    tag_160:\n        /* \"#utility.yul\":2042:2092   */\n      swap1\n      pop\n        /* \"#utility.yul\":1957:2098   */\n      swap2\n      swap1\n      pop\n      jump\t// out\n        /* \"#utility.yul\":2104:2265   */\n    tag_103:\n        /* \"#utility.yul\":2206:2258   */\n      tag_162\n        /* \"#utility.yul\":2252:2257   */\n      dup2\n        /* \"#utility.yul\":2206:2258   */\n      tag_102\n      jump\t// in\n    tag_162:\n        /* \"#utility.yul\":2201:2204   */\n      dup3\n        /* \"#utility.yul\":2194:2259   */\n      mstore\n        /* \"#utility.yul\":2104:2265   */\n      pop\n      pop\n      jump\t// out\n        /* \"#utility.yul\":2271:2523   */\n    tag_18:\n        /* \"#utility.yul\":2379:2383   */\n      0x00\n        /* \"#utility.yul\":2417:2419   */\n      0x20\n        /* \"#utility.yul\":2406:2415   */\n      dup3\n        /* \"#utility.yul\":2402:2420   */\n      add\n        /* \"#utility.yul\":2394:2420   */\n      swap1\n      pop\n        /* \"#utility.yul\":2430:2516   */\n      tag_164\n        /* \"#utility.yul\":2513:2514   */\n      0x00\n        /* \"#utility.yul\":2502:2511   */\n      dup4\n        /* \"#utility.yul\":2498:2515   */\n      add\n        /* \"#utility.yul\":2489:2495   */\n      dup5\n        /* \"#utility.yul\":2430:2516   */\n      tag_103\n      jump\t// in\n    tag_164:\n        /* \"#utility.yul\":2271:2523   */\n      swap3\n      swap2\n      pop\n      pop\n      jump\t// out\n        /* \"#utility.yul\":2529:2646   */\n    tag_104:\n        /* \"#utility.yul\":2638:2639   */\n      0x00\n        /* \"#utility.yul\":2635:2636   */\n      dup1\n        /* \"#utility.yul\":2628:2640   */\n      revert\n        /* \"#utility.yul\":2652:2754   */\n    tag_105:\n        /* \"#utility.yul\":2693:2699   */\n      0x00\n        /* \"#utility.yul\":2744:2746   */\n      0x1f\n        /* \"#utility.yul\":2740:2747   */\n      not\n        /* \"#utility.yul\":2735:2737   */\n      0x1f\n        /* \"#utility.yul\":2728:2733   */\n      dup4\n        /* \"#utility.yul\":2724:2738   */\n      add\n        /* \"#utility.yul\":2720:2748   */\n      and\n        /* \"#utility.yul\":2710:2748   */\n      swap1\n      pop\n        /* \"#utility.yul\":2652:2754   */\n      swap2\n      swap1\n      pop\n      jump\t// out\n        /* \"#utility.yul\":2760:2940   */\n    tag_106:\n        /* \"#utility.yul\":2808:2885   */\n      0x4e487b7100000000000000000000000000000000000000000000000000000000\n        /* \"#utility.yul\":2805:2806   */\n      0x00\n        /* \"#utility.yul\":2798:2886   */\n      mstore\n        /* \"#utility.yul\":2905:2909   */\n      0x41\n        /* \"#utility.yul\":2902:2903   */\n      0x04\n        /* \"#utility.yul\":2895:2910   */\n      mstore\n        /* \"#utility.yul\":2929:2933   */\n      0x24\n        /* \"#utility.yul\":2926:2927   */\n      0x00\n        /* \"#utility.yul\":2919:2934   */\n      revert\n        /* \"#utility.yul\":2946:3227   */\n    tag_107:\n        /* \"#utility.yul\":3029:3056   */\n      tag_169\n        /* \"#utility.yul\":3051:3055   */\n      dup3\n        /* \"#utility.yul\":3029:3056   */\n      tag_105\n      jump\t// in\n    tag_169:\n        /* \"#utility.yul\":3021:3027   */\n      dup2\n        /* \"#utility.yul\":3017:3057   */\n      add\n        /* \"#utility.yul\":3159:3165   */\n      dup2\n        /* \"#utility.yul\":3147:3157   */\n      dup2\n        /* \"#utility.yul\":3144:3166   */\n      lt\n        /* \"#utility.yul\":3123:3141   */\n      0xffffffffffffffff\n        /* \"#utility.yul\":3111:3121   */\n      dup3\n        /* \"#utility.yul\":3108:3142   */\n      gt\n        /* \"#utility.yul\":3105:3167   */\n      or\n        /* \"#utility.yul\":3102:3190   */\n      iszero\n      tag_170\n      jumpi\n        /* \"#utility.yul\":3170:3188   */\n      tag_171\n      tag_106\n      jump\t// in\n    tag_171:\n        /* \"#utility.yul\":3102:3190   */\n    tag_170:\n        /* \"#utility.yul\":3210:3220   */\n      dup1\n        /* \"#utility.yul\":3206:3208   */\n      0x40\n        /* \"#utility.yul\":3199:3221   */\n      mstore\n        /* \"#utility.yul\":2989:3227   */\n      pop\n        /* \"#utility.yul\":2946:3227   */\n      pop\n      pop\n      jump\t// out\n        /* \"#utility.yul\":3233:3362   */\n    tag_108:\n        /* \"#utility.yul\":3267:3273   */\n      0x00\n        /* \"#utility.yul\":3294:3314   */\n      tag_173\n      tag_90\n      jump\t// in\n    tag_173:\n        /* \"#utility.yul\":3284:3314   */\n      swap1\n      pop\n        /* \"#utility.yul\":3323:3356   */\n      tag_174\n        /* \"#utility.yul\":3351:3355   */\n      dup3\n        /* \"#utility.yul\":3343:3349   */\n      dup3\n        /* \"#utility.yul\":3323:3356   */\n      tag_107\n      jump\t// in\n    tag_174:\n        /* \"#utility.yul\":3233:3362   */\n      swap2\n      swap1\n      pop\n      jump\t// out\n        /* \"#utility.yul\":3368:3679   */\n    tag_109:\n        /* \"#utility.yul\":3445:3449   */\n      0x00\n        /* \"#utility.yul\":3535:3553   */\n      0xffffffffffffffff\n        /* \"#utility.yul\":3527:3533   */\n      dup3\n        /* \"#utility.yul\":3524:3554   */\n      gt\n        /* \"#utility.yul\":3521:3577   */\n      iszero\n      tag_176\n      jumpi\n        /* \"#utility.yul\":3557:3575   */\n      tag_177\n      tag_106\n      jump\t// in\n    tag_177:\n        /* \"#utility.yul\":3521:3577   */\n    tag_176:\n        /* \"#utility.yul\":3607:3611   */\n      0x20\n        /* \"#utility.yul\":3599:3605   */\n      dup3\n        /* \"#utility.yul\":3595:3612   */\n      mul\n        /* \"#utility.yul\":3587:3612   */\n      swap1\n      pop\n        /* \"#utility.yul\":3667:3671   */\n      0x20\n        /* \"#utility.yul\":3661:3665   */\n      dup2\n        /* \"#utility.yul\":3657:3672   */\n      add\n        /* \"#utility.yul\":3649:3672   */\n      swap1\n      pop\n        /* \"#utility.yul\":3368:3679   */\n      swap2\n      swap1\n      pop\n      jump\t// out\n        /* \"#utility.yul\":3685:3802   */\n    tag_110:\n        /* \"#utility.yul\":3794:3795   */\n      0x00\n        /* \"#utility.yul\":3791:3792   */\n      dup1\n        /* \"#utility.yul\":3784:3796   */\n      revert\n        /* \"#utility.yul\":3825:4535   */\n    tag_111:\n        /* \"#utility.yul\":3921:3926   */\n      0x00\n        /* \"#utility.yul\":3946:4027   */\n      tag_180\n        /* \"#utility.yul\":3962:4026   */\n      tag_181\n        /* \"#utility.yul\":4019:4025   */\n      dup5\n        /* \"#utility.yul\":3962:4026   */\n      tag_109\n      jump\t// in\n    tag_181:\n        /* \"#utility.yul\":3946:4027   */\n      tag_108\n      jump\t// in\n    tag_180:\n        /* \"#utility.yul\":3937:4027   */\n      swap1\n      pop\n        /* \"#utility.yul\":4047:4052   */\n      dup1\n        /* \"#utility.yul\":4076:4082   */\n      dup4\n        /* \"#utility.yul\":4069:4074   */\n      dup3\n        /* \"#utility.yul\":4062:4083   */\n      mstore\n        /* \"#utility.yul\":4110:4114   */\n      0x20\n        /* \"#utility.yul\":4103:4108   */\n      dup3\n        /* \"#utility.yul\":4099:4115   */\n      add\n        /* \"#utility.yul\":4092:4115   */\n      swap1\n      pop\n        /* \"#utility.yul\":4163:4167   */\n      0x20\n        /* \"#utility.yul\":4155:4161   */\n      dup5\n        /* \"#utility.yul\":4151:4168   */\n      mul\n        /* \"#utility.yul\":4143:4149   */\n      dup4\n        /* \"#utility.yul\":4139:4169   */\n      add\n        /* \"#utility.yul\":4192:4195   */\n      dup6\n        /* \"#utility.yul\":4184:4190   */\n      dup2\n        /* \"#utility.yul\":4181:4196   */\n      gt\n        /* \"#utility.yul\":4178:4300   */\n      iszero\n      tag_182\n      jumpi\n        /* \"#utility.yul\":4211:4290   */\n      tag_183\n      tag_110\n      jump\t// in\n    tag_183:\n        /* \"#utility.yul\":4178:4300   */\n    tag_182:\n        /* \"#utility.yul\":4326:4332   */\n      dup4\n        /* \"#utility.yul\":4309:4529   */\n    tag_184:\n        /* \"#utility.yul\":4343:4349   */\n      dup2\n        /* \"#utility.yul\":4338:4341   */\n      dup2\n        /* \"#utility.yul\":4335:4350   */\n      lt\n        /* \"#utility.yul\":4309:4529   */\n      iszero\n      tag_186\n      jumpi\n        /* \"#utility.yul\":4418:4421   */\n      dup1\n        /* \"#utility.yul\":4447:4484   */\n      tag_187\n        /* \"#utility.yul\":4480:4483   */\n      dup9\n        /* \"#utility.yul\":4468:4478   */\n      dup3\n        /* \"#utility.yul\":4447:4484   */\n      tag_96\n      jump\t// in\n    tag_187:\n        /* \"#utility.yul\":4442:4445   */\n      dup5\n        /* \"#utility.yul\":4435:4485   */\n      mstore\n        /* \"#utility.yul\":4514:4518   */\n      0x20\n        /* \"#utility.yul\":4509:4512   */\n      dup5\n        /* \"#utility.yul\":4505:4519   */\n      add\n        /* \"#utility.yul\":4498:4519   */\n      swap4\n      pop\n        /* \"#utility.yul\":4385:4529   */\n      pop\n        /* \"#utility.yul\":4369:4373   */\n      0x20\n        /* \"#utility.yul\":4364:4367   */\n      dup2\n        /* \"#utility.yul\":4360:4374   */\n      add\n        /* \"#utility.yul\":4353:4374   */\n      swap1\n      pop\n        /* \"#utility.yul\":4309:4529   */\n      jump(tag_184)\n    tag_186:\n        /* \"#utility.yul\":4313:4334   */\n      pop\n        /* \"#utility.yul\":3927:4535   */\n      pop\n      pop\n        /* \"#utility.yul\":3825:4535   */\n      swap4\n      swap3\n      pop\n      pop\n      pop\n      jump\t// out\n        /* \"#utility.yul\":4558:4928   */\n    tag_112:\n        /* \"#utility.yul\":4629:4634   */\n      0x00\n        /* \"#utility.yul\":4678:4681   */\n      dup3\n        /* \"#utility.yul\":4671:4675   */\n      0x1f\n        /* \"#utility.yul\":4663:4669   */\n      dup4\n        /* \"#utility.yul\":4659:4676   */\n      add\n        /* \"#utility.yul\":4655:4682   */\n      slt\n        /* \"#utility.yul\":4645:4767   */\n      tag_189\n      jumpi\n        /* \"#utility.yul\":4686:4765   */\n      tag_190\n      tag_104\n      jump\t// in\n    tag_190:\n        /* \"#utility.yul\":4645:4767   */\n    tag_189:\n        /* \"#utility.yul\":4803:4809   */\n      dup2\n        /* \"#utility.yul\":4790:4810   */\n      calldataload\n        /* \"#utility.yul\":4828:4922   */\n      tag_191\n        /* \"#utility.yul\":4918:4921   */\n      dup5\n        /* \"#utility.yul\":4910:4916   */\n      dup3\n        /* \"#utility.yul\":4903:4907   */\n      0x20\n        /* \"#utility.yul\":4895:4901   */\n      dup7\n        /* \"#utility.yul\":4891:4908   */\n      add\n        /* \"#utility.yul\":4828:4922   */\n      tag_111\n      jump\t// in\n    tag_191:\n        /* \"#utility.yul\":4819:4922   */\n      swap2\n      pop\n        /* \"#utility.yul\":4635:4928   */\n      pop\n        /* \"#utility.yul\":4558:4928   */\n      swap3\n      swap2\n      pop\n      pop\n      jump\t// out\n        /* \"#utility.yul\":4934:5909   */\n    tag_21:\n        /* \"#utility.yul\":5045:5051   */\n      0x00\n        /* \"#utility.yul\":5053:5059   */\n      dup1\n        /* \"#utility.yul\":5061:5067   */\n      0x00\n        /* \"#utility.yul\":5069:5075   */\n      dup1\n        /* \"#utility.yul\":5118:5121   */\n      0x80\n        /* \"#utility.yul\":5106:5115   */\n      dup6\n        /* \"#utility.yul\":5097:5104   */\n      dup8\n        /* \"#utility.yul\":5093:5116   */\n      sub\n        /* \"#utility.yul\":5089:5122   */\n      slt\n        /* \"#utility.yul\":5086:5206   */\n      iszero\n      tag_193\n      jumpi\n        /* \"#utility.yul\":5125:5204   */\n      tag_194\n      tag_91\n      jump\t// in\n    tag_194:\n        /* \"#utility.yul\":5086:5206   */\n    tag_193:\n        /* \"#utility.yul\":5245:5246   */\n      0x00\n        /* \"#utility.yul\":5270:5323   */\n      tag_195\n        /* \"#utility.yul\":5315:5322   */\n      dup8\n        /* \"#utility.yul\":5306:5312   */\n      dup3\n        /* \"#utility.yul\":5295:5304   */\n      dup9\n        /* \"#utility.yul\":5291:5313   */\n      add\n        /* \"#utility.yul\":5270:5323   */\n      tag_96\n      jump\t// in\n    tag_195:\n        /* \"#utility.yul\":5260:5323   */\n      swap5\n      pop\n        /* \"#utility.yul\":5216:5333   */\n      pop\n        /* \"#utility.yul\":5372:5374   */\n      0x20\n        /* \"#utility.yul\":5398:5451   */\n      tag_196\n        /* \"#utility.yul\":5443:5450   */\n      dup8\n        /* \"#utility.yul\":5434:5440   */\n      dup3\n        /* \"#utility.yul\":5423:5432   */\n      dup9\n        /* \"#utility.yul\":5419:5441   */\n      add\n        /* \"#utility.yul\":5398:5451   */\n      tag_96\n      jump\t// in\n    tag_196:\n        /* \"#utility.yul\":5388:5451   */\n      swap4\n      pop\n        /* \"#utility.yul\":5343:5461   */\n      pop\n        /* \"#utility.yul\":5500:5502   */\n      0x40\n        /* \"#utility.yul\":5526:5579   */\n      tag_197\n        /* \"#utility.yul\":5571:5578   */\n      dup8\n        /* \"#utility.yul\":5562:5568   */\n      dup3\n        /* \"#utility.yul\":5551:5560   */\n      dup9\n        /* \"#utility.yul\":5547:5569   */\n      add\n        /* \"#utility.yul\":5526:5579   */\n      tag_96\n      jump\t// in\n    tag_197:\n        /* \"#utility.yul\":5516:5579   */\n      swap3\n      pop\n        /* \"#utility.yul\":5471:5589   */\n      pop\n        /* \"#utility.yul\":5656:5658   */\n      0x60\n        /* \"#utility.yul\":5645:5654   */\n      dup6\n        /* \"#utility.yul\":5641:5659   */\n      add\n        /* \"#utility.yul\":5628:5660   */\n      calldataload\n        /* \"#utility.yul\":5687:5705   */\n      0xffffffffffffffff\n        /* \"#utility.yul\":5679:5685   */\n      dup2\n        /* \"#utility.yul\":5676:5706   */\n      gt\n        /* \"#utility.yul\":5673:5790   */\n      iszero\n      tag_198\n      jumpi\n        /* \"#utility.yul\":5709:5788   */\n      tag_199\n      tag_92\n      jump\t// in\n    tag_199:\n        /* \"#utility.yul\":5673:5790   */\n    tag_198:\n        /* \"#utility.yul\":5814:5892   */\n      tag_200\n        /* \"#utility.yul\":5884:5891   */\n      dup8\n        /* \"#utility.yul\":5875:5881   */\n      dup3\n        /* \"#utility.yul\":5864:5873   */\n      dup9\n        /* \"#utility.yul\":5860:5882   */\n      add\n        /* \"#utility.yul\":5814:5892   */\n      tag_112\n      jump\t// in\n    tag_200:\n        /* \"#utility.yul\":5804:5892   */\n      swap2\n      pop\n        /* \"#utility.yul\":5599:5902   */\n      pop\n        /* \"#utility.yul\":4934:5909   */\n      swap3\n      swap6\n      swap2\n      swap5\n      pop\n      swap3\n      pop\n      jump\t// out\n        /* \"#utility.yul\":5915:6033   */\n    tag_113:\n        /* \"#utility.yul\":6002:6026   */\n      tag_202\n        /* \"#utility.yul\":6020:6025   */\n      dup2\n        /* \"#utility.yul\":6002:6026   */\n      tag_94\n      jump\t// in\n    tag_202:\n        /* \"#utility.yul\":5997:6000   */\n      dup3\n        /* \"#utility.yul\":5990:6027   */\n      mstore\n        /* \"#utility.yul\":5915:6033   */\n      pop\n      pop\n      jump\t// out\n        /* \"#utility.yul\":6039:6261   */\n    tag_28:\n        /* \"#utility.yul\":6132:6136   */\n      0x00\n        /* \"#utility.yul\":6170:6172   */\n      0x20\n        /* \"#utility.yul\":6159:6168   */\n      dup3\n        /* \"#utility.yul\":6155:6173   */\n      add\n        /* \"#utility.yul\":6147:6173   */\n      swap1\n      pop\n        /* \"#utility.yul\":6183:6254   */\n      tag_204\n        /* \"#utility.yul\":6251:6252   */\n      0x00\n        /* \"#utility.yul\":6240:6249   */\n      dup4\n        /* \"#utility.yul\":6236:6253   */\n      add\n        /* \"#utility.yul\":6227:6233   */\n      dup5\n        /* \"#utility.yul\":6183:6254   */\n      tag_113\n      jump\t// in\n    tag_204:\n        /* \"#utility.yul\":6039:6261   */\n      swap3\n      swap2\n      pop\n      pop\n      jump\t// out\n        /* \"#utility.yul\":6267:6389   */\n    tag_114:\n        /* \"#utility.yul\":6340:6364   */\n      tag_206\n        /* \"#utility.yul\":6358:6363   */\n      dup2\n        /* \"#utility.yul\":6340:6364   */\n      tag_97\n      jump\t// in\n    tag_206:\n        /* \"#utility.yul\":6333:6338   */\n      dup2\n        /* \"#utility.yul\":6330:6365   */\n      eq\n        /* \"#utility.yul\":6320:6383   */\n      tag_207\n      jumpi\n        /* \"#utility.yul\":6379:6380   */\n      0x00\n        /* \"#utility.yul\":6376:6377   */\n      dup1\n        /* \"#utility.yul\":6369:6381   */\n      revert\n        /* \"#utility.yul\":6320:6383   */\n    tag_207:\n        /* \"#utility.yul\":6267:6389   */\n      pop\n      jump\t// out\n        /* \"#utility.yul\":6395:6538   */\n    tag_115:\n        /* \"#utility.yul\":6452:6457   */\n      0x00\n        /* \"#utility.yul\":6483:6489   */\n      dup2\n        /* \"#utility.yul\":6477:6490   */\n      mload\n        /* \"#utility.yul\":6468:6490   */\n      swap1\n      pop\n        /* \"#utility.yul\":6499:6532   */\n      tag_209\n        /* \"#utility.yul\":6526:6531   */\n      dup2\n        /* \"#utility.yul\":6499:6532   */\n      tag_114\n      jump\t// in\n    tag_209:\n        /* \"#utility.yul\":6395:6538   */\n      swap3\n      swap2\n      pop\n      pop\n      jump\t// out\n        /* \"#utility.yul\":6544:6895   */\n    tag_37:\n        /* \"#utility.yul\":6614:6620   */\n      0x00\n        /* \"#utility.yul\":6663:6665   */\n      0x20\n        /* \"#utility.yul\":6651:6660   */\n      dup3\n        /* \"#utility.yul\":6642:6649   */\n      dup5\n        /* \"#utility.yul\":6638:6661   */\n      sub\n        /* \"#utility.yul\":6634:6666   */\n      slt\n        /* \"#utility.yul\":6631:6750   */\n      iszero\n      tag_211\n      jumpi\n        /* \"#utility.yul\":6669:6748   */\n      tag_212\n      tag_91\n      jump\t// in\n    tag_212:\n        /* \"#utility.yul\":6631:6750   */\n    tag_211:\n        /* \"#utility.yul\":6789:6790   */\n      0x00\n        /* \"#utility.yul\":6814:6878   */\n      tag_213\n        /* \"#utility.yul\":6870:6877   */\n      dup5\n        /* \"#utility.yul\":6861:6867   */\n      dup3\n        /* \"#utility.yul\":6850:6859   */\n      dup6\n        /* \"#utility.yul\":6846:6868   */\n      add\n        /* \"#utility.yul\":6814:6878   */\n      tag_115\n      jump\t// in\n    tag_213:\n        /* \"#utility.yul\":6804:6878   */\n      swap2\n      pop\n        /* \"#utility.yul\":6760:6888   */\n      pop\n        /* \"#utility.yul\":6544:6895   */\n      swap3\n      swap2\n      pop\n      pop\n      jump\t// out\n        /* \"#utility.yul\":6901:7005   */\n    tag_116:\n        /* \"#utility.yul\":6965:6972   */\n      0x00\n        /* \"#utility.yul\":6994:6999   */\n      dup2\n        /* \"#utility.yul\":6983:6999   */\n      swap1\n      pop\n        /* \"#utility.yul\":6901:7005   */\n      swap2\n      swap1\n      pop\n      jump\t// out\n        /* \"#utility.yul\":7011:7207   */\n    tag_117:\n        /* \"#utility.yul\":7088:7097   */\n      0x00\n        /* \"#utility.yul\":7121:7201   */\n      tag_216\n        /* \"#utility.yul\":7139:7200   */\n      tag_217\n        /* \"#utility.yul\":7148:7199   */\n      tag_218\n        /* \"#utility.yul\":7193:7198   */\n      dup5\n        /* \"#utility.yul\":7148:7199   */\n      tag_116\n      jump\t// in\n    tag_218:\n        /* \"#utility.yul\":7139:7200   */\n      tag_99\n      jump\t// in\n    tag_217:\n        /* \"#utility.yul\":7121:7201   */\n      tag_97\n      jump\t// in\n    tag_216:\n        /* \"#utility.yul\":7108:7201   */\n      swap1\n      pop\n        /* \"#utility.yul\":7011:7207   */\n      swap2\n      swap1\n      pop\n      jump\t// out\n        /* \"#utility.yul\":7213:7398   */\n    tag_118:\n        /* \"#utility.yul\":7327:7391   */\n      tag_220\n        /* \"#utility.yul\":7385:7390   */\n      dup2\n        /* \"#utility.yul\":7327:7391   */\n      tag_117\n      jump\t// in\n    tag_220:\n        /* \"#utility.yul\":7322:7325   */\n      dup3\n        /* \"#utility.yul\":7315:7392   */\n      mstore\n        /* \"#utility.yul\":7213:7398   */\n      pop\n      pop\n      jump\t// out\n        /* \"#utility.yul\":7404:7900   */\n    tag_43:\n        /* \"#utility.yul\":7580:7584   */\n      0x00\n        /* \"#utility.yul\":7618:7620   */\n      0x60\n        /* \"#utility.yul\":7607:7616   */\n      dup3\n        /* \"#utility.yul\":7603:7621   */\n      add\n        /* \"#utility.yul\":7595:7621   */\n      swap1\n      pop\n        /* \"#utility.yul\":7631:7702   */\n      tag_222\n        /* \"#utility.yul\":7699:7700   */\n      0x00\n        /* \"#utility.yul\":7688:7697   */\n      dup4\n        /* \"#utility.yul\":7684:7701   */\n      add\n        /* \"#utility.yul\":7675:7681   */\n      dup7\n        /* \"#utility.yul\":7631:7702   */\n      tag_113\n      jump\t// in\n    tag_222:\n        /* \"#utility.yul\":7712:7784   */\n      tag_223\n        /* \"#utility.yul\":7780:7782   */\n      0x20\n        /* \"#utility.yul\":7769:7778   */\n      dup4\n        /* \"#utility.yul\":7765:7783   */\n      add\n        /* \"#utility.yul\":7756:7762   */\n      dup6\n        /* \"#utility.yul\":7712:7784   */\n      tag_113\n      jump\t// in\n    tag_223:\n        /* \"#utility.yul\":7794:7893   */\n      tag_224\n        /* \"#utility.yul\":7889:7891   */\n      0x40\n        /* \"#utility.yul\":7878:7887   */\n      dup4\n        /* \"#utility.yul\":7874:7892   */\n      add\n        /* \"#utility.yul\":7865:7871   */\n      dup5\n        /* \"#utility.yul\":7794:7893   */\n      tag_118\n      jump\t// in\n    tag_224:\n        /* \"#utility.yul\":7404:7900   */\n      swap5\n      swap4\n      pop\n      pop\n      pop\n      pop\n      jump\t// out\n        /* \"#utility.yul\":7906:7996   */\n    tag_119:\n        /* \"#utility.yul\":7940:7947   */\n      0x00\n        /* \"#utility.yul\":7983:7988   */\n      dup2\n        /* \"#utility.yul\":7976:7989   */\n      iszero\n        /* \"#utility.yul\":7969:7990   */\n      iszero\n        /* \"#utility.yul\":7958:7990   */\n      swap1\n      pop\n        /* \"#utility.yul\":7906:7996   */\n      swap2\n      swap1\n      pop\n      jump\t// out\n        /* \"#utility.yul\":8002:8118   */\n    tag_120:\n        /* \"#utility.yul\":8072:8093   */\n      tag_227\n        /* \"#utility.yul\":8087:8092   */\n      dup2\n        /* \"#utility.yul\":8072:8093   */\n      tag_119\n      jump\t// in\n    tag_227:\n        /* \"#utility.yul\":8065:8070   */\n      dup2\n        /* \"#utility.yul\":8062:8094   */\n      eq\n        /* \"#utility.yul\":8052:8112   */\n      tag_228\n      jumpi\n        /* \"#utility.yul\":8108:8109   */\n      0x00\n        /* \"#utility.yul\":8105:8106   */\n      dup1\n        /* \"#utility.yul\":8098:8110   */\n      revert\n        /* \"#utility.yul\":8052:8112   */\n    tag_228:\n        /* \"#utility.yul\":8002:8118   */\n      pop\n      jump\t// out\n        /* \"#utility.yul\":8124:8261   */\n    tag_121:\n        /* \"#utility.yul\":8178:8183   */\n      0x00\n        /* \"#utility.yul\":8209:8215   */\n      dup2\n        /* \"#utility.yul\":8203:8216   */\n      mload\n        /* \"#utility.yul\":8194:8216   */\n      swap1\n      pop\n        /* \"#utility.yul\":8225:8255   */\n      tag_230\n        /* \"#utility.yul\":8249:8254   */\n      dup2\n        /* \"#utility.yul\":8225:8255   */\n      tag_120\n      jump\t// in\n    tag_230:\n        /* \"#utility.yul\":8124:8261   */\n      swap3\n      swap2\n      pop\n      pop\n      jump\t// out\n        /* \"#utility.yul\":8267:8612   */\n    tag_47:\n        /* \"#utility.yul\":8334:8340   */\n      0x00\n        /* \"#utility.yul\":8383:8385   */\n      0x20\n        /* \"#utility.yul\":8371:8380   */\n      dup3\n        /* \"#utility.yul\":8362:8369   */\n      dup5\n        /* \"#utility.yul\":8358:8381   */\n      sub\n        /* \"#utility.yul\":8354:8386   */\n      slt\n        /* \"#utility.yul\":8351:8470   */\n      iszero\n      tag_232\n      jumpi\n        /* \"#utility.yul\":8389:8468   */\n      tag_233\n      tag_91\n      jump\t// in\n    tag_233:\n        /* \"#utility.yul\":8351:8470   */\n    tag_232:\n        /* \"#utility.yul\":8509:8510   */\n      0x00\n        /* \"#utility.yul\":8534:8595   */\n      tag_234\n        /* \"#utility.yul\":8587:8594   */\n      dup5\n        /* \"#utility.yul\":8578:8584   */\n      dup3\n        /* \"#utility.yul\":8567:8576   */\n      dup6\n        /* \"#utility.yul\":8563:8585   */\n      add\n        /* \"#utility.yul\":8534:8595   */\n      tag_121\n      jump\t// in\n    tag_234:\n        /* \"#utility.yul\":8524:8595   */\n      swap2\n      pop\n        /* \"#utility.yul\":8480:8605   */\n      pop\n        /* \"#utility.yul\":8267:8612   */\n      swap3\n      swap2\n      pop\n      pop\n      jump\t// out\n        /* \"#utility.yul\":8618:8721   */\n    tag_122:\n        /* \"#utility.yul\":8681:8688   */\n      0x00\n        /* \"#utility.yul\":8710:8715   */\n      dup2\n        /* \"#utility.yul\":8699:8715   */\n      swap1\n      pop\n        /* \"#utility.yul\":8618:8721   */\n      swap2\n      swap1\n      pop\n      jump\t// out\n        /* \"#utility.yul\":8727:8921   */\n    tag_123:\n        /* \"#utility.yul\":8803:8812   */\n      0x00\n        /* \"#utility.yul\":8836:8915   */\n      tag_237\n        /* \"#utility.yul\":8854:8914   */\n      tag_238\n        /* \"#utility.yul\":8863:8913   */\n      tag_239\n        /* \"#utility.yul\":8907:8912   */\n      dup5\n        /* \"#utility.yul\":8863:8913   */\n      tag_122\n      jump\t// in\n    tag_239:\n        /* \"#utility.yul\":8854:8914   */\n      tag_99\n      jump\t// in\n    tag_238:\n        /* \"#utility.yul\":8836:8915   */\n      tag_97\n      jump\t// in\n    tag_237:\n        /* \"#utility.yul\":8823:8915   */\n      swap1\n      pop\n        /* \"#utility.yul\":8727:8921   */\n      swap2\n      swap1\n      pop\n      jump\t// out\n        /* \"#utility.yul\":8927:9110   */\n    tag_124:\n        /* \"#utility.yul\":9040:9103   */\n      tag_241\n        /* \"#utility.yul\":9097:9102   */\n      dup2\n        /* \"#utility.yul\":9040:9103   */\n      tag_123\n      jump\t// in\n    tag_241:\n        /* \"#utility.yul\":9035:9038   */\n      dup3\n        /* \"#utility.yul\":9028:9104   */\n      mstore\n        /* \"#utility.yul\":8927:9110   */\n      pop\n      pop\n      jump\t// out\n        /* \"#utility.yul\":9116:9610   */\n    tag_49:\n        /* \"#utility.yul\":9291:9295   */\n      0x00\n        /* \"#utility.yul\":9329:9331   */\n      0x60\n        /* \"#utility.yul\":9318:9327   */\n      dup3\n        /* \"#utility.yul\":9314:9332   */\n      add\n        /* \"#utility.yul\":9306:9332   */\n      swap1\n      pop\n        /* \"#utility.yul\":9342:9413   */\n      tag_243\n        /* \"#utility.yul\":9410:9411   */\n      0x00\n        /* \"#utility.yul\":9399:9408   */\n      dup4\n        /* \"#utility.yul\":9395:9412   */\n      add\n        /* \"#utility.yul\":9386:9392   */\n      dup7\n        /* \"#utility.yul\":9342:9413   */\n      tag_113\n      jump\t// in\n    tag_243:\n        /* \"#utility.yul\":9423:9495   */\n      tag_244\n        /* \"#utility.yul\":9491:9493   */\n      0x20\n        /* \"#utility.yul\":9480:9489   */\n      dup4\n        /* \"#utility.yul\":9476:9494   */\n      add\n        /* \"#utility.yul\":9467:9473   */\n      dup6\n        /* \"#utility.yul\":9423:9495   */\n      tag_113\n      jump\t// in\n    tag_244:\n        /* \"#utility.yul\":9505:9603   */\n      tag_245\n        /* \"#utility.yul\":9599:9601   */\n      0x40\n        /* \"#utility.yul\":9588:9597   */\n      dup4\n        /* \"#utility.yul\":9584:9602   */\n      add\n        /* \"#utility.yul\":9575:9581   */\n      dup5\n        /* \"#utility.yul\":9505:9603   */\n      tag_124\n      jump\t// in\n    tag_245:\n        /* \"#utility.yul\":9116:9610   */\n      swap5\n      swap4\n      pop\n      pop\n      pop\n      pop\n      jump\t// out\n        /* \"#utility.yul\":9616:9719   */\n    tag_125:\n        /* \"#utility.yul\":9679:9686   */\n      0x00\n        /* \"#utility.yul\":9708:9713   */\n      dup2\n        /* \"#utility.yul\":9697:9713   */\n      swap1\n      pop\n        /* \"#utility.yul\":9616:9719   */\n      swap2\n      swap1\n      pop\n      jump\t// out\n        /* \"#utility.yul\":9725:9919   */\n    tag_126:\n        /* \"#utility.yul\":9801:9810   */\n      0x00\n        /* \"#utility.yul\":9834:9913   */\n      tag_248\n        /* \"#utility.yul\":9852:9912   */\n      tag_249\n        /* \"#utility.yul\":9861:9911   */\n      tag_250\n        /* \"#utility.yul\":9905:9910   */\n      dup5\n        /* \"#utility.yul\":9861:9911   */\n      tag_125\n      jump\t// in\n    tag_250:\n        /* \"#utility.yul\":9852:9912   */\n      tag_99\n      jump\t// in\n    tag_249:\n        /* \"#utility.yul\":9834:9913   */\n      tag_97\n      jump\t// in\n    tag_248:\n        /* \"#utility.yul\":9821:9913   */\n      swap1\n      pop\n        /* \"#utility.yul\":9725:9919   */\n      swap2\n      swap1\n      pop\n      jump\t// out\n        /* \"#utility.yul\":9925:10108   */\n    tag_127:\n        /* \"#utility.yul\":10038:10101   */\n      tag_252\n        /* \"#utility.yul\":10095:10100   */\n      dup2\n        /* \"#utility.yul\":10038:10101   */\n      tag_126\n      jump\t// in\n    tag_252:\n        /* \"#utility.yul\":10033:10036   */\n      dup3\n        /* \"#utility.yul\":10026:10102   */\n      mstore\n        /* \"#utility.yul\":9925:10108   */\n      pop\n      pop\n      jump\t// out\n        /* \"#utility.yul\":10114:10608   */\n    tag_54:\n        /* \"#utility.yul\":10289:10293   */\n      0x00\n        /* \"#utility.yul\":10327:10329   */\n      0x60\n        /* \"#utility.yul\":10316:10325   */\n      dup3\n        /* \"#utility.yul\":10312:10330   */\n      add\n        /* \"#utility.yul\":10304:10330   */\n      swap1\n      pop\n        /* \"#utility.yul\":10340:10411   */\n      tag_254\n        /* \"#utility.yul\":10408:10409   */\n      0x00\n        /* \"#utility.yul\":10397:10406   */\n      dup4\n        /* \"#utility.yul\":10393:10410   */\n      add\n        /* \"#utility.yul\":10384:10390   */\n      dup7\n        /* \"#utility.yul\":10340:10411   */\n      tag_113\n      jump\t// in\n    tag_254:\n        /* \"#utility.yul\":10421:10493   */\n      tag_255\n        /* \"#utility.yul\":10489:10491   */\n      0x20\n        /* \"#utility.yul\":10478:10487   */\n      dup4\n        /* \"#utility.yul\":10474:10492   */\n      add\n        /* \"#utility.yul\":10465:10471   */\n      dup6\n        /* \"#utility.yul\":10421:10493   */\n      tag_113\n      jump\t// in\n    tag_255:\n        /* \"#utility.yul\":10503:10601   */\n      tag_256\n        /* \"#utility.yul\":10597:10599   */\n      0x40\n        /* \"#utility.yul\":10586:10595   */\n      dup4\n        /* \"#utility.yul\":10582:10600   */\n      add\n        /* \"#utility.yul\":10573:10579   */\n      dup5\n        /* \"#utility.yul\":10503:10601   */\n      tag_127\n      jump\t// in\n    tag_256:\n        /* \"#utility.yul\":10114:10608   */\n      swap5\n      swap4\n      pop\n      pop\n      pop\n      pop\n      jump\t// out\n        /* \"#utility.yul\":10614:10794   */\n    tag_63:\n        /* \"#utility.yul\":10662:10739   */\n      0x4e487b7100000000000000000000000000000000000000000000000000000000\n        /* \"#utility.yul\":10659:10660   */\n      0x00\n        /* \"#utility.yul\":10652:10740   */\n      mstore\n        /* \"#utility.yul\":10759:10763   */\n      0x32\n        /* \"#utility.yul\":10756:10757   */\n      0x04\n        /* \"#utility.yul\":10749:10764   */\n      mstore\n        /* \"#utility.yul\":10783:10787   */\n      0x24\n        /* \"#utility.yul\":10780:10781   */\n      0x00\n        /* \"#utility.yul\":10773:10788   */\n      revert\n        /* \"#utility.yul\":10800:10903   */\n    tag_128:\n        /* \"#utility.yul\":10863:10870   */\n      0x00\n        /* \"#utility.yul\":10892:10897   */\n      dup2\n        /* \"#utility.yul\":10881:10897   */\n      swap1\n      pop\n        /* \"#utility.yul\":10800:10903   */\n      swap2\n      swap1\n      pop\n      jump\t// out\n        /* \"#utility.yul\":10909:11103   */\n    tag_129:\n        /* \"#utility.yul\":10985:10994   */\n      0x00\n        /* \"#utility.yul\":11018:11097   */\n      tag_260\n        /* \"#utility.yul\":11036:11096   */\n      tag_261\n        /* \"#utility.yul\":11045:11095   */\n      tag_262\n        /* \"#utility.yul\":11089:11094   */\n      dup5\n        /* \"#utility.yul\":11045:11095   */\n      tag_128\n      jump\t// in\n    tag_262:\n        /* \"#utility.yul\":11036:11096   */\n      tag_99\n      jump\t// in\n    tag_261:\n        /* \"#utility.yul\":11018:11097   */\n      tag_97\n      jump\t// in\n    tag_260:\n        /* \"#utility.yul\":11005:11097   */\n      swap1\n      pop\n        /* \"#utility.yul\":10909:11103   */\n      swap2\n      swap1\n      pop\n      jump\t// out\n        /* \"#utility.yul\":11109:11292   */\n    tag_130:\n        /* \"#utility.yul\":11222:11285   */\n      tag_264\n        /* \"#utility.yul\":11279:11284   */\n      dup2\n        /* \"#utility.yul\":11222:11285   */\n      tag_129\n      jump\t// in\n    tag_264:\n        /* \"#utility.yul\":11217:11220   */\n      dup3\n        /* \"#utility.yul\":11210:11286   */\n      mstore\n        /* \"#utility.yul\":11109:11292   */\n      pop\n      pop\n      jump\t// out\n        /* \"#utility.yul\":11298:11792   */\n    tag_65:\n        /* \"#utility.yul\":11473:11477   */\n      0x00\n        /* \"#utility.yul\":11511:11513   */\n      0x60\n        /* \"#utility.yul\":11500:11509   */\n      dup3\n        /* \"#utility.yul\":11496:11514   */\n      add\n        /* \"#utility.yul\":11488:11514   */\n      swap1\n      pop\n        /* \"#utility.yul\":11524:11595   */\n      tag_266\n        /* \"#utility.yul\":11592:11593   */\n      0x00\n        /* \"#utility.yul\":11581:11590   */\n      dup4\n        /* \"#utility.yul\":11577:11594   */\n      add\n        /* \"#utility.yul\":11568:11574   */\n      dup7\n        /* \"#utility.yul\":11524:11595   */\n      tag_113\n      jump\t// in\n    tag_266:\n        /* \"#utility.yul\":11605:11677   */\n      tag_267\n        /* \"#utility.yul\":11673:11675   */\n      0x20\n        /* \"#utility.yul\":11662:11671   */\n      dup4\n        /* \"#utility.yul\":11658:11676   */\n      add\n        /* \"#utility.yul\":11649:11655   */\n      dup6\n        /* \"#utility.yul\":11605:11677   */\n      tag_113\n      jump\t// in\n    tag_267:\n        /* \"#utility.yul\":11687:11785   */\n      tag_268\n        /* \"#utility.yul\":11781:11783   */\n      0x40\n        /* \"#utility.yul\":11770:11779   */\n      dup4\n        /* \"#utility.yul\":11766:11784   */\n      add\n        /* \"#utility.yul\":11757:11763   */\n      dup5\n        /* \"#utility.yul\":11687:11785   */\n      tag_130\n      jump\t// in\n    tag_268:\n        /* \"#utility.yul\":11298:11792   */\n      swap5\n      swap4\n      pop\n      pop\n      pop\n      pop\n      jump\t// out\n\n    auxdata: 0xa26469706673582212202e5bf74f6edff9f9a7e578986ee47cdb608eb95909873cee4de4a2221d024f1664736f6c63430008190033\n}\n",
				"bytecode": {
					"linkReferences": {},
					"object": "608060405234801561000f575f80fd5b50604051610f50380380610f5083398181016040528101906100319190610218565b805f73ffffffffffffffffffffffffffffffffffffffff168173ffffffffffffffffffffffffffffffffffffffff16036100a2575f6040517f1e4fbdf70000000000000000000000000000000000000000000000000000000081526004016100999190610265565b60405180910390fd5b6100b1816100f960201b60201c565b508160015f6101000a81548173ffffffffffffffffffffffffffffffffffffffff021916908373ffffffffffffffffffffffffffffffffffffffff160217905550505061027e565b5f805f9054906101000a900473ffffffffffffffffffffffffffffffffffffffff169050815f806101000a81548173ffffffffffffffffffffffffffffffffffffffff021916908373ffffffffffffffffffffffffffffffffffffffff1602179055508173ffffffffffffffffffffffffffffffffffffffff168173ffffffffffffffffffffffffffffffffffffffff167f8be0079c531659141344cd1fd0a4f28419497f9722a3daafe3b4186f6b6457e060405160405180910390a35050565b5f80fd5b5f73ffffffffffffffffffffffffffffffffffffffff82169050919050565b5f6101e7826101be565b9050919050565b6101f7816101dd565b8114610201575f80fd5b50565b5f81519050610212816101ee565b92915050565b5f806040838503121561022e5761022d6101ba565b5b5f61023b85828601610204565b925050602061024c85828601610204565b9150509250929050565b61025f816101dd565b82525050565b5f6020820190506102785f830184610256565b92915050565b610cc58061028b5f395ff3fe608060405234801561000f575f80fd5b5060043610610060575f3560e01c806308b9ddd814610064578063489f67de1461009457806352bc412e146100b2578063715018a6146100ce5780638da5cb5b146100d8578063f2fde38b146100f6575b5f80fd5b61007e6004803603810190610079919061072d565b610112565b60405161008b9190610770565b60405180910390f35b61009c6101b3565b6040516100a991906107e4565b60405180910390f35b6100cc60048036038101906100c7919061094d565b6101d8565b005b6100d66104b5565b005b6100e06104c8565b6040516100ed91906109dc565b60405180910390f35b610110600480360381019061010b919061072d565b6104ef565b005b5f60015f9054906101000a900473ffffffffffffffffffffffffffffffffffffffff1673ffffffffffffffffffffffffffffffffffffffff166370a08231836040518263ffffffff1660e01b815260040161016d91906109dc565b602060405180830381865afa158015610188573d5f803e3d5ffd5b505050506040513d601f19601f820116820180604052508101906101ac9190610a1f565b9050919050565b60015f9054906101000a900473ffffffffffffffffffffffffffffffffffffffff1681565b6101e0610573565b60015f9054906101000a900473ffffffffffffffffffffffffffffffffffffffff1673ffffffffffffffffffffffffffffffffffffffff166323b872dd3386678ac7230489e800006040518463ffffffff1660e01b815260040161024693929190610a83565b6020604051808303815f875af1158015610262573d5f803e3d5ffd5b505050506040513d601f19601f820116820180604052508101906102869190610aed565b5060015f9054906101000a900473ffffffffffffffffffffffffffffffffffffffff1673ffffffffffffffffffffffffffffffffffffffff166323b872dd3385676f05b59d3b2000006040518463ffffffff1660e01b81526004016102ed93929190610b51565b6020604051808303815f875af1158015610309573d5f803e3d5ffd5b505050506040513d601f19601f8201168201806040525081019061032d9190610aed565b5060015f9054906101000a900473ffffffffffffffffffffffffffffffffffffffff1673ffffffffffffffffffffffffffffffffffffffff166323b872dd33846753444835ec5800006040518463ffffffff1660e01b815260040161039493929190610bbf565b6020604051808303815f875af11580156103b0573d5f803e3d5ffd5b505050506040513d601f19601f820116820180604052508101906103d49190610aed565b505f5b81518110156104ae5760015f9054906101000a900473ffffffffffffffffffffffffffffffffffffffff1673ffffffffffffffffffffffffffffffffffffffff166323b872dd3384848151811061043157610430610bf4565b5b6020026020010151670de0b6b3a76400006040518463ffffffff1660e01b815260040161046093929190610c5a565b6020604051808303815f875af115801561047c573d5f803e3d5ffd5b505050506040513d601f19601f820116820180604052508101906104a09190610aed565b5080806001019150506103d7565b5050505050565b6104bd610573565b6104c65f6105fa565b565b5f805f9054906101000a900473ffffffffffffffffffffffffffffffffffffffff16905090565b6104f7610573565b5f73ffffffffffffffffffffffffffffffffffffffff168173ffffffffffffffffffffffffffffffffffffffff1603610567575f6040517f1e4fbdf700000000000000000000000000000000000000000000000000000000815260040161055e91906109dc565b60405180910390fd5b610570816105fa565b50565b61057b6106bb565b73ffffffffffffffffffffffffffffffffffffffff166105996104c8565b73ffffffffffffffffffffffffffffffffffffffff16146105f8576105bc6106bb565b6040517f118cdaa70000000000000000000000000000000000000000000000000000000081526004016105ef91906109dc565b60405180910390fd5b565b5f805f9054906101000a900473ffffffffffffffffffffffffffffffffffffffff169050815f806101000a81548173ffffffffffffffffffffffffffffffffffffffff021916908373ffffffffffffffffffffffffffffffffffffffff1602179055508173ffffffffffffffffffffffffffffffffffffffff168173ffffffffffffffffffffffffffffffffffffffff167f8be0079c531659141344cd1fd0a4f28419497f9722a3daafe3b4186f6b6457e060405160405180910390a35050565b5f33905090565b5f604051905090565b5f80fd5b5f80fd5b5f73ffffffffffffffffffffffffffffffffffffffff82169050919050565b5f6106fc826106d3565b9050919050565b61070c816106f2565b8114610716575f80fd5b50565b5f8135905061072781610703565b92915050565b5f60208284031215610742576107416106cb565b5b5f61074f84828501610719565b91505092915050565b5f819050919050565b61076a81610758565b82525050565b5f6020820190506107835f830184610761565b92915050565b5f819050919050565b5f6107ac6107a76107a2846106d3565b610789565b6106d3565b9050919050565b5f6107bd82610792565b9050919050565b5f6107ce826107b3565b9050919050565b6107de816107c4565b82525050565b5f6020820190506107f75f8301846107d5565b92915050565b5f80fd5b5f601f19601f8301169050919050565b7f4e487b71000000000000000000000000000000000000000000000000000000005f52604160045260245ffd5b61084782610801565b810181811067ffffffffffffffff8211171561086657610865610811565b5b80604052505050565b5f6108786106c2565b9050610884828261083e565b919050565b5f67ffffffffffffffff8211156108a3576108a2610811565b5b602082029050602081019050919050565b5f80fd5b5f6108ca6108c584610889565b61086f565b905080838252602082019050602084028301858111156108ed576108ec6108b4565b5b835b8181101561091657806109028882610719565b8452602084019350506020810190506108ef565b5050509392505050565b5f82601f830112610934576109336107fd565b5b81356109448482602086016108b8565b91505092915050565b5f805f8060808587031215610965576109646106cb565b5b5f61097287828801610719565b945050602061098387828801610719565b935050604061099487828801610719565b925050606085013567ffffffffffffffff8111156109b5576109b46106cf565b5b6109c187828801610920565b91505092959194509250565b6109d6816106f2565b82525050565b5f6020820190506109ef5f8301846109cd565b92915050565b6109fe81610758565b8114610a08575f80fd5b50565b5f81519050610a19816109f5565b92915050565b5f60208284031215610a3457610a336106cb565b5b5f610a4184828501610a0b565b91505092915050565b5f819050919050565b5f610a6d610a68610a6384610a4a565b610789565b610758565b9050919050565b610a7d81610a53565b82525050565b5f606082019050610a965f8301866109cd565b610aa360208301856109cd565b610ab06040830184610a74565b949350505050565b5f8115159050919050565b610acc81610ab8565b8114610ad6575f80fd5b50565b5f81519050610ae781610ac3565b92915050565b5f60208284031215610b0257610b016106cb565b5b5f610b0f84828501610ad9565b91505092915050565b5f819050919050565b5f610b3b610b36610b3184610b18565b610789565b610758565b9050919050565b610b4b81610b21565b82525050565b5f606082019050610b645f8301866109cd565b610b7160208301856109cd565b610b7e6040830184610b42565b949350505050565b5f819050919050565b5f610ba9610ba4610b9f84610b86565b610789565b610758565b9050919050565b610bb981610b8f565b82525050565b5f606082019050610bd25f8301866109cd565b610bdf60208301856109cd565b610bec6040830184610bb0565b949350505050565b7f4e487b71000000000000000000000000000000000000000000000000000000005f52603260045260245ffd5b5f819050919050565b5f610c44610c3f610c3a84610c21565b610789565b610758565b9050919050565b610c5481610c2a565b82525050565b5f606082019050610c6d5f8301866109cd565b610c7a60208301856109cd565b610c876040830184610c4b565b94935050505056fea26469706673582212202e5bf74f6edff9f9a7e578986ee47cdb608eb95909873cee4de4a2221d024f1664736f6c63430008190033",
					"opcodes": "PUSH1 0x80 PUSH1 0x40 MSTORE CALLVALUE DUP1 ISZERO PUSH2 0xF JUMPI PUSH0 DUP1 REVERT JUMPDEST POP PUSH1 0x40 MLOAD PUSH2 0xF50 CODESIZE SUB DUP1 PUSH2 0xF50 DUP4 CODECOPY DUP2 DUP2 ADD PUSH1 0x40 MSTORE DUP2 ADD SWAP1 PUSH2 0x31 SWAP2 SWAP1 PUSH2 0x218 JUMP JUMPDEST DUP1 PUSH0 PUSH20 0xFFFFFFFFFFFFFFFFFFFFFFFFFFFFFFFFFFFFFFFF AND DUP2 PUSH20 0xFFFFFFFFFFFFFFFFFFFFFFFFFFFFFFFFFFFFFFFF AND SUB PUSH2 0xA2 JUMPI PUSH0 PUSH1 0x40 MLOAD PUSH32 0x1E4FBDF700000000000000000000000000000000000000000000000000000000 DUP2 MSTORE PUSH1 0x4 ADD PUSH2 0x99 SWAP2 SWAP1 PUSH2 0x265 JUMP JUMPDEST PUSH1 0x40 MLOAD DUP1 SWAP2 SUB SWAP1 REVERT JUMPDEST PUSH2 0xB1 DUP2 PUSH2 0xF9 PUSH1 0x20 SHL PUSH1 0x20 SHR JUMP JUMPDEST POP DUP2 PUSH1 0x1 PUSH0 PUSH2 0x100 EXP DUP2 SLOAD DUP2 PUSH20 0xFFFFFFFFFFFFFFFFFFFFFFFFFFFFFFFFFFFFFFFF MUL NOT AND SWAP1 DUP4 PUSH20 0xFFFFFFFFFFFFFFFFFFFFFFFFFFFFFFFFFFFFFFFF AND MUL OR SWAP1 SSTORE POP POP POP PUSH2 0x27E JUMP JUMPDEST PUSH0 DUP1 PUSH0 SWAP1 SLOAD SWAP1 PUSH2 0x100 EXP SWAP1 DIV PUSH20 0xFFFFFFFFFFFFFFFFFFFFFFFFFFFFFFFFFFFFFFFF AND SWAP1 POP DUP2 PUSH0 DUP1 PUSH2 0x100 EXP DUP2 SLOAD DUP2 PUSH20 0xFFFFFFFFFFFFFFFFFFFFFFFFFFFFFFFFFFFFFFFF MUL NOT AND SWAP1 DUP4 PUSH20 0xFFFFFFFFFFFFFFFFFFFFFFFFFFFFFFFFFFFFFFFF AND MUL OR SWAP1 SSTORE POP DUP2 PUSH20 0xFFFFFFFFFFFFFFFFFFFFFFFFFFFFFFFFFFFFFFFF AND DUP2 PUSH20 0xFFFFFFFFFFFFFFFFFFFFFFFFFFFFFFFFFFFFFFFF AND PUSH32 0x8BE0079C531659141344CD1FD0A4F28419497F9722A3DAAFE3B4186F6B6457E0 PUSH1 0x40 MLOAD PUSH1 0x40 MLOAD DUP1 SWAP2 SUB SWAP1 LOG3 POP POP JUMP JUMPDEST PUSH0 DUP1 REVERT JUMPDEST PUSH0 PUSH20 0xFFFFFFFFFFFFFFFFFFFFFFFFFFFFFFFFFFFFFFFF DUP3 AND SWAP1 POP SWAP2 SWAP1 POP JUMP JUMPDEST PUSH0 PUSH2 0x1E7 DUP3 PUSH2 0x1BE JUMP JUMPDEST SWAP1 POP SWAP2 SWAP1 POP JUMP JUMPDEST PUSH2 0x1F7 DUP2 PUSH2 0x1DD JUMP JUMPDEST DUP2 EQ PUSH2 0x201 JUMPI PUSH0 DUP1 REVERT JUMPDEST POP JUMP JUMPDEST PUSH0 DUP2 MLOAD SWAP1 POP PUSH2 0x212 DUP2 PUSH2 0x1EE JUMP JUMPDEST SWAP3 SWAP2 POP POP JUMP JUMPDEST PUSH0 DUP1 PUSH1 0x40 DUP4 DUP6 SUB SLT ISZERO PUSH2 0x22E JUMPI PUSH2 0x22D PUSH2 0x1BA JUMP JUMPDEST JUMPDEST PUSH0 PUSH2 0x23B DUP6 DUP3 DUP7 ADD PUSH2 0x204 JUMP JUMPDEST SWAP3 POP POP PUSH1 0x20 PUSH2 0x24C DUP6 DUP3 DUP7 ADD PUSH2 0x204 JUMP JUMPDEST SWAP2 POP POP SWAP3 POP SWAP3 SWAP1 POP JUMP JUMPDEST PUSH2 0x25F DUP2 PUSH2 0x1DD JUMP JUMPDEST DUP3 MSTORE POP POP JUMP JUMPDEST PUSH0 PUSH1 0x20 DUP3 ADD SWAP1 POP PUSH2 0x278 PUSH0 DUP4 ADD DUP5 PUSH2 0x256 JUMP JUMPDEST SWAP3 SWAP2 POP POP JUMP JUMPDEST PUSH2 0xCC5 DUP1 PUSH2 0x28B PUSH0 CODECOPY PUSH0 RETURN INVALID PUSH1 0x80 PUSH1 0x40 MSTORE CALLVALUE DUP1 ISZERO PUSH2 0xF JUMPI PUSH0 DUP1 REVERT JUMPDEST POP PUSH1 0x4 CALLDATASIZE LT PUSH2 0x60 JUMPI PUSH0 CALLDATALOAD PUSH1 0xE0 SHR DUP1 PUSH4 0x8B9DDD8 EQ PUSH2 0x64 JUMPI DUP1 PUSH4 0x489F67DE EQ PUSH2 0x94 JUMPI DUP1 PUSH4 0x52BC412E EQ PUSH2 0xB2 JUMPI DUP1 PUSH4 0x715018A6 EQ PUSH2 0xCE JUMPI DUP1 PUSH4 0x8DA5CB5B EQ PUSH2 0xD8 JUMPI DUP1 PUSH4 0xF2FDE38B EQ PUSH2 0xF6 JUMPI JUMPDEST PUSH0 DUP1 REVERT JUMPDEST PUSH2 0x7E PUSH1 0x4 DUP1 CALLDATASIZE SUB DUP2 ADD SWAP1 PUSH2 0x79 SWAP2 SWAP1 PUSH2 0x72D JUMP JUMPDEST PUSH2 0x112 JUMP JUMPDEST PUSH1 0x40 MLOAD PUSH2 0x8B SWAP2 SWAP1 PUSH2 0x770 JUMP JUMPDEST PUSH1 0x40 MLOAD DUP1 SWAP2 SUB SWAP1 RETURN JUMPDEST PUSH2 0x9C PUSH2 0x1B3 JUMP JUMPDEST PUSH1 0x40 MLOAD PUSH2 0xA9 SWAP2 SWAP1 PUSH2 0x7E4 JUMP JUMPDEST PUSH1 0x40 MLOAD DUP1 SWAP2 SUB SWAP1 RETURN JUMPDEST PUSH2 0xCC PUSH1 0x4 DUP1 CALLDATASIZE SUB DUP2 ADD SWAP1 PUSH2 0xC7 SWAP2 SWAP1 PUSH2 0x94D JUMP JUMPDEST PUSH2 0x1D8 JUMP JUMPDEST STOP JUMPDEST PUSH2 0xD6 PUSH2 0x4B5 JUMP JUMPDEST STOP JUMPDEST PUSH2 0xE0 PUSH2 0x4C8 JUMP JUMPDEST PUSH1 0x40 MLOAD PUSH2 0xED SWAP2 SWAP1 PUSH2 0x9DC JUMP JUMPDEST PUSH1 0x40 MLOAD DUP1 SWAP2 SUB SWAP1 RETURN JUMPDEST PUSH2 0x110 PUSH1 0x4 DUP1 CALLDATASIZE SUB DUP2 ADD SWAP1 PUSH2 0x10B SWAP2 SWAP1 PUSH2 0x72D JUMP JUMPDEST PUSH2 0x4EF JUMP JUMPDEST STOP JUMPDEST PUSH0 PUSH1 0x1 PUSH0 SWAP1 SLOAD SWAP1 PUSH2 0x100 EXP SWAP1 DIV PUSH20 0xFFFFFFFFFFFFFFFFFFFFFFFFFFFFFFFFFFFFFFFF AND PUSH20 0xFFFFFFFFFFFFFFFFFFFFFFFFFFFFFFFFFFFFFFFF AND PUSH4 0x70A08231 DUP4 PUSH1 0x40 MLOAD DUP3 PUSH4 0xFFFFFFFF AND PUSH1 0xE0 SHL DUP2 MSTORE PUSH1 0x4 ADD PUSH2 0x16D SWAP2 SWAP1 PUSH2 0x9DC JUMP JUMPDEST PUSH1 0x20 PUSH1 0x40 MLOAD DUP1 DUP4 SUB DUP2 DUP7 GAS STATICCALL ISZERO DUP1 ISZERO PUSH2 0x188 JUMPI RETURNDATASIZE PUSH0 DUP1 RETURNDATACOPY RETURNDATASIZE PUSH0 REVERT JUMPDEST POP POP POP POP PUSH1 0x40 MLOAD RETURNDATASIZE PUSH1 0x1F NOT PUSH1 0x1F DUP3 ADD AND DUP3 ADD DUP1 PUSH1 0x40 MSTORE POP DUP2 ADD SWAP1 PUSH2 0x1AC SWAP2 SWAP1 PUSH2 0xA1F JUMP JUMPDEST SWAP1 POP SWAP2 SWAP1 POP JUMP JUMPDEST PUSH1 0x1 PUSH0 SWAP1 SLOAD SWAP1 PUSH2 0x100 EXP SWAP1 DIV PUSH20 0xFFFFFFFFFFFFFFFFFFFFFFFFFFFFFFFFFFFFFFFF AND DUP2 JUMP JUMPDEST PUSH2 0x1E0 PUSH2 0x573 JUMP JUMPDEST PUSH1 0x1 PUSH0 SWAP1 SLOAD SWAP1 PUSH2 0x100 EXP SWAP1 DIV PUSH20 0xFFFFFFFFFFFFFFFFFFFFFFFFFFFFFFFFFFFFFFFF AND PUSH20 0xFFFFFFFFFFFFFFFFFFFFFFFFFFFFFFFFFFFFFFFF AND PUSH4 0x23B872DD CALLER DUP7 PUSH8 0x8AC7230489E80000 PUSH1 0x40 MLOAD DUP5 PUSH4 0xFFFFFFFF AND PUSH1 0xE0 SHL DUP2 MSTORE PUSH1 0x4 ADD PUSH2 0x246 SWAP4 SWAP3 SWAP2 SWAP1 PUSH2 0xA83 JUMP JUMPDEST PUSH1 0x20 PUSH1 0x40 MLOAD DUP1 DUP4 SUB DUP2 PUSH0 DUP8 GAS CALL ISZERO DUP1 ISZERO PUSH2 0x262 JUMPI RETURNDATASIZE PUSH0 DUP1 RETURNDATACOPY RETURNDATASIZE PUSH0 REVERT JUMPDEST POP POP POP POP PUSH1 0x40 MLOAD RETURNDATASIZE PUSH1 0x1F NOT PUSH1 0x1F DUP3 ADD AND DUP3 ADD DUP1 PUSH1 0x40 MSTORE POP DUP2 ADD SWAP1 PUSH2 0x286 SWAP2 SWAP1 PUSH2 0xAED JUMP JUMPDEST POP PUSH1 0x1 PUSH0 SWAP1 SLOAD SWAP1 PUSH2 0x100 EXP SWAP1 DIV PUSH20 0xFFFFFFFFFFFFFFFFFFFFFFFFFFFFFFFFFFFFFFFF AND PUSH20 0xFFFFFFFFFFFFFFFFFFFFFFFFFFFFFFFFFFFFFFFF AND PUSH4 0x23B872DD CALLER DUP6 PUSH8 0x6F05B59D3B200000 PUSH1 0x40 MLOAD DUP5 PUSH4 0xFFFFFFFF AND PUSH1 0xE0 SHL DUP2 MSTORE PUSH1 0x4 ADD PUSH2 0x2ED SWAP4 SWAP3 SWAP2 SWAP1 PUSH2 0xB51 JUMP JUMPDEST PUSH1 0x20 PUSH1 0x40 MLOAD DUP1 DUP4 SUB DUP2 PUSH0 DUP8 GAS CALL ISZERO DUP1 ISZERO PUSH2 0x309 JUMPI RETURNDATASIZE PUSH0 DUP1 RETURNDATACOPY RETURNDATASIZE PUSH0 REVERT JUMPDEST POP POP POP POP PUSH1 0x40 MLOAD RETURNDATASIZE PUSH1 0x1F NOT PUSH1 0x1F DUP3 ADD AND DUP3 ADD DUP1 PUSH1 0x40 MSTORE POP DUP2 ADD SWAP1 PUSH2 0x32D SWAP2 SWAP1 PUSH2 0xAED JUMP JUMPDEST POP PUSH1 0x1 PUSH0 SWAP1 SLOAD SWAP1 PUSH2 0x100 EXP SWAP1 DIV PUSH20 0xFFFFFFFFFFFFFFFFFFFFFFFFFFFFFFFFFFFFFFFF AND PUSH20 0xFFFFFFFFFFFFFFFFFFFFFFFFFFFFFFFFFFFFFFFF AND PUSH4 0x23B872DD CALLER DUP5 PUSH8 0x53444835EC580000 PUSH1 0x40 MLOAD DUP5 PUSH4 0xFFFFFFFF AND PUSH1 0xE0 SHL DUP2 MSTORE PUSH1 0x4 ADD PUSH2 0x394 SWAP4 SWAP3 SWAP2 SWAP1 PUSH2 0xBBF JUMP JUMPDEST PUSH1 0x20 PUSH1 0x40 MLOAD DUP1 DUP4 SUB DUP2 PUSH0 DUP8 GAS CALL ISZERO DUP1 ISZERO PUSH2 0x3B0 JUMPI RETURNDATASIZE PUSH0 DUP1 RETURNDATACOPY RETURNDATASIZE PUSH0 REVERT JUMPDEST POP POP POP POP PUSH1 0x40 MLOAD RETURNDATASIZE PUSH1 0x1F NOT PUSH1 0x1F DUP3 ADD AND DUP3 ADD DUP1 PUSH1 0x40 MSTORE POP DUP2 ADD SWAP1 PUSH2 0x3D4 SWAP2 SWAP1 PUSH2 0xAED JUMP JUMPDEST POP PUSH0 JUMPDEST DUP2 MLOAD DUP2 LT ISZERO PUSH2 0x4AE JUMPI PUSH1 0x1 PUSH0 SWAP1 SLOAD SWAP1 PUSH2 0x100 EXP SWAP1 DIV PUSH20 0xFFFFFFFFFFFFFFFFFFFFFFFFFFFFFFFFFFFFFFFF AND PUSH20 0xFFFFFFFFFFFFFFFFFFFFFFFFFFFFFFFFFFFFFFFF AND PUSH4 0x23B872DD CALLER DUP5 DUP5 DUP2 MLOAD DUP2 LT PUSH2 0x431 JUMPI PUSH2 0x430 PUSH2 0xBF4 JUMP JUMPDEST JUMPDEST PUSH1 0x20 MUL PUSH1 0x20 ADD ADD MLOAD PUSH8 0xDE0B6B3A7640000 PUSH1 0x40 MLOAD DUP5 PUSH4 0xFFFFFFFF AND PUSH1 0xE0 SHL DUP2 MSTORE PUSH1 0x4 ADD PUSH2 0x460 SWAP4 SWAP3 SWAP2 SWAP1 PUSH2 0xC5A JUMP JUMPDEST PUSH1 0x20 PUSH1 0x40 MLOAD DUP1 DUP4 SUB DUP2 PUSH0 DUP8 GAS CALL ISZERO DUP1 ISZERO PUSH2 0x47C JUMPI RETURNDATASIZE PUSH0 DUP1 RETURNDATACOPY RETURNDATASIZE PUSH0 REVERT JUMPDEST POP POP POP POP PUSH1 0x40 MLOAD RETURNDATASIZE PUSH1 0x1F NOT PUSH1 0x1F DUP3 ADD AND DUP3 ADD DUP1 PUSH1 0x40 MSTORE POP DUP2 ADD SWAP1 PUSH2 0x4A0 SWAP2 SWAP1 PUSH2 0xAED JUMP JUMPDEST POP DUP1 DUP1 PUSH1 0x1 ADD SWAP2 POP POP PUSH2 0x3D7 JUMP JUMPDEST POP POP POP POP POP JUMP JUMPDEST PUSH2 0x4BD PUSH2 0x573 JUMP JUMPDEST PUSH2 0x4C6 PUSH0 PUSH2 0x5FA JUMP JUMPDEST JUMP JUMPDEST PUSH0 DUP1 PUSH0 SWAP1 SLOAD SWAP1 PUSH2 0x100 EXP SWAP1 DIV PUSH20 0xFFFFFFFFFFFFFFFFFFFFFFFFFFFFFFFFFFFFFFFF AND SWAP1 POP SWAP1 JUMP JUMPDEST PUSH2 0x4F7 PUSH2 0x573 JUMP JUMPDEST PUSH0 PUSH20 0xFFFFFFFFFFFFFFFFFFFFFFFFFFFFFFFFFFFFFFFF AND DUP2 PUSH20 0xFFFFFFFFFFFFFFFFFFFFFFFFFFFFFFFFFFFFFFFF AND SUB PUSH2 0x567 JUMPI PUSH0 PUSH1 0x40 MLOAD PUSH32 0x1E4FBDF700000000000000000000000000000000000000000000000000000000 DUP2 MSTORE PUSH1 0x4 ADD PUSH2 0x55E SWAP2 SWAP1 PUSH2 0x9DC JUMP JUMPDEST PUSH1 0x40 MLOAD DUP1 SWAP2 SUB SWAP1 REVERT JUMPDEST PUSH2 0x570 DUP2 PUSH2 0x5FA JUMP JUMPDEST POP JUMP JUMPDEST PUSH2 0x57B PUSH2 0x6BB JUMP JUMPDEST PUSH20 0xFFFFFFFFFFFFFFFFFFFFFFFFFFFFFFFFFFFFFFFF AND PUSH2 0x599 PUSH2 0x4C8 JUMP JUMPDEST PUSH20 0xFFFFFFFFFFFFFFFFFFFFFFFFFFFFFFFFFFFFFFFF AND EQ PUSH2 0x5F8 JUMPI PUSH2 0x5BC PUSH2 0x6BB JUMP JUMPDEST PUSH1 0x40 MLOAD PUSH32 0x118CDAA700000000000000000000000000000000000000000000000000000000 DUP2 MSTORE PUSH1 0x4 ADD PUSH2 0x5EF SWAP2 SWAP1 PUSH2 0x9DC JUMP JUMPDEST PUSH1 0x40 MLOAD DUP1 SWAP2 SUB SWAP1 REVERT JUMPDEST JUMP JUMPDEST PUSH0 DUP1 PUSH0 SWAP1 SLOAD SWAP1 PUSH2 0x100 EXP SWAP1 DIV PUSH20 0xFFFFFFFFFFFFFFFFFFFFFFFFFFFFFFFFFFFFFFFF AND SWAP1 POP DUP2 PUSH0 DUP1 PUSH2 0x100 EXP DUP2 SLOAD DUP2 PUSH20 0xFFFFFFFFFFFFFFFFFFFFFFFFFFFFFFFFFFFFFFFF MUL NOT AND SWAP1 DUP4 PUSH20 0xFFFFFFFFFFFFFFFFFFFFFFFFFFFFFFFFFFFFFFFF AND MUL OR SWAP1 SSTORE POP DUP2 PUSH20 0xFFFFFFFFFFFFFFFFFFFFFFFFFFFFFFFFFFFFFFFF AND DUP2 PUSH20 0xFFFFFFFFFFFFFFFFFFFFFFFFFFFFFFFFFFFFFFFF AND PUSH32 0x8BE0079C531659141344CD1FD0A4F28419497F9722A3DAAFE3B4186F6B6457E0 PUSH1 0x40 MLOAD PUSH1 0x40 MLOAD DUP1 SWAP2 SUB SWAP1 LOG3 POP POP JUMP JUMPDEST PUSH0 CALLER SWAP1 POP SWAP1 JUMP JUMPDEST PUSH0 PUSH1 0x40 MLOAD SWAP1 POP SWAP1 JUMP JUMPDEST PUSH0 DUP1 REVERT JUMPDEST PUSH0 DUP1 REVERT JUMPDEST PUSH0 PUSH20 0xFFFFFFFFFFFFFFFFFFFFFFFFFFFFFFFFFFFFFFFF DUP3 AND SWAP1 POP SWAP2 SWAP1 POP JUMP JUMPDEST PUSH0 PUSH2 0x6FC DUP3 PUSH2 0x6D3 JUMP JUMPDEST SWAP1 POP SWAP2 SWAP1 POP JUMP JUMPDEST PUSH2 0x70C DUP2 PUSH2 0x6F2 JUMP JUMPDEST DUP2 EQ PUSH2 0x716 JUMPI PUSH0 DUP1 REVERT JUMPDEST POP JUMP JUMPDEST PUSH0 DUP2 CALLDATALOAD SWAP1 POP PUSH2 0x727 DUP2 PUSH2 0x703 JUMP JUMPDEST SWAP3 SWAP2 POP POP JUMP JUMPDEST PUSH0 PUSH1 0x20 DUP3 DUP5 SUB SLT ISZERO PUSH2 0x742 JUMPI PUSH2 0x741 PUSH2 0x6CB JUMP JUMPDEST JUMPDEST PUSH0 PUSH2 0x74F DUP5 DUP3 DUP6 ADD PUSH2 0x719 JUMP JUMPDEST SWAP2 POP POP SWAP3 SWAP2 POP POP JUMP JUMPDEST PUSH0 DUP2 SWAP1 POP SWAP2 SWAP1 POP JUMP JUMPDEST PUSH2 0x76A DUP2 PUSH2 0x758 JUMP JUMPDEST DUP3 MSTORE POP POP JUMP JUMPDEST PUSH0 PUSH1 0x20 DUP3 ADD SWAP1 POP PUSH2 0x783 PUSH0 DUP4 ADD DUP5 PUSH2 0x761 JUMP JUMPDEST SWAP3 SWAP2 POP POP JUMP JUMPDEST PUSH0 DUP2 SWAP1 POP SWAP2 SWAP1 POP JUMP JUMPDEST PUSH0 PUSH2 0x7AC PUSH2 0x7A7 PUSH2 0x7A2 DUP5 PUSH2 0x6D3 JUMP JUMPDEST PUSH2 0x789 JUMP JUMPDEST PUSH2 0x6D3 JUMP JUMPDEST SWAP1 POP SWAP2 SWAP1 POP JUMP JUMPDEST PUSH0 PUSH2 0x7BD DUP3 PUSH2 0x792 JUMP JUMPDEST SWAP1 POP SWAP2 SWAP1 POP JUMP JUMPDEST PUSH0 PUSH2 0x7CE DUP3 PUSH2 0x7B3 JUMP JUMPDEST SWAP1 POP SWAP2 SWAP1 POP JUMP JUMPDEST PUSH2 0x7DE DUP2 PUSH2 0x7C4 JUMP JUMPDEST DUP3 MSTORE POP POP JUMP JUMPDEST PUSH0 PUSH1 0x20 DUP3 ADD SWAP1 POP PUSH2 0x7F7 PUSH0 DUP4 ADD DUP5 PUSH2 0x7D5 JUMP JUMPDEST SWAP3 SWAP2 POP POP JUMP JUMPDEST PUSH0 DUP1 REVERT JUMPDEST PUSH0 PUSH1 0x1F NOT PUSH1 0x1F DUP4 ADD AND SWAP1 POP SWAP2 SWAP1 POP JUMP JUMPDEST PUSH32 0x4E487B7100000000000000000000000000000000000000000000000000000000 PUSH0 MSTORE PUSH1 0x41 PUSH1 0x4 MSTORE PUSH1 0x24 PUSH0 REVERT JUMPDEST PUSH2 0x847 DUP3 PUSH2 0x801 JUMP JUMPDEST DUP2 ADD DUP2 DUP2 LT PUSH8 0xFFFFFFFFFFFFFFFF DUP3 GT OR ISZERO PUSH2 0x866 JUMPI PUSH2 0x865 PUSH2 0x811 JUMP JUMPDEST JUMPDEST DUP1 PUSH1 0x40 MSTORE POP POP POP JUMP JUMPDEST PUSH0 PUSH2 0x878 PUSH2 0x6C2 JUMP JUMPDEST SWAP1 POP PUSH2 0x884 DUP3 DUP3 PUSH2 0x83E JUMP JUMPDEST SWAP2 SWAP1 POP JUMP JUMPDEST PUSH0 PUSH8 0xFFFFFFFFFFFFFFFF DUP3 GT ISZERO PUSH2 0x8A3 JUMPI PUSH2 0x8A2 PUSH2 0x811 JUMP JUMPDEST JUMPDEST PUSH1 0x20 DUP3 MUL SWAP1 POP PUSH1 0x20 DUP2 ADD SWAP1 POP SWAP2 SWAP1 POP JUMP JUMPDEST PUSH0 DUP1 REVERT JUMPDEST PUSH0 PUSH2 0x8CA PUSH2 0x8C5 DUP5 PUSH2 0x889 JUMP JUMPDEST PUSH2 0x86F JUMP JUMPDEST SWAP1 POP DUP1 DUP4 DUP3 MSTORE PUSH1 0x20 DUP3 ADD SWAP1 POP PUSH1 0x20 DUP5 MUL DUP4 ADD DUP6 DUP2 GT ISZERO PUSH2 0x8ED JUMPI PUSH2 0x8EC PUSH2 0x8B4 JUMP JUMPDEST JUMPDEST DUP4 JUMPDEST DUP2 DUP2 LT ISZERO PUSH2 0x916 JUMPI DUP1 PUSH2 0x902 DUP9 DUP3 PUSH2 0x719 JUMP JUMPDEST DUP5 MSTORE PUSH1 0x20 DUP5 ADD SWAP4 POP POP PUSH1 0x20 DUP2 ADD SWAP1 POP PUSH2 0x8EF JUMP JUMPDEST POP POP POP SWAP4 SWAP3 POP POP POP JUMP JUMPDEST PUSH0 DUP3 PUSH1 0x1F DUP4 ADD SLT PUSH2 0x934 JUMPI PUSH2 0x933 PUSH2 0x7FD JUMP JUMPDEST JUMPDEST DUP2 CALLDATALOAD PUSH2 0x944 DUP5 DUP3 PUSH1 0x20 DUP7 ADD PUSH2 0x8B8 JUMP JUMPDEST SWAP2 POP POP SWAP3 SWAP2 POP POP JUMP JUMPDEST PUSH0 DUP1 PUSH0 DUP1 PUSH1 0x80 DUP6 DUP8 SUB SLT ISZERO PUSH2 0x965 JUMPI PUSH2 0x964 PUSH2 0x6CB JUMP JUMPDEST JUMPDEST PUSH0 PUSH2 0x972 DUP8 DUP3 DUP9 ADD PUSH2 0x719 JUMP JUMPDEST SWAP5 POP POP PUSH1 0x20 PUSH2 0x983 DUP8 DUP3 DUP9 ADD PUSH2 0x719 JUMP JUMPDEST SWAP4 POP POP PUSH1 0x40 PUSH2 0x994 DUP8 DUP3 DUP9 ADD PUSH2 0x719 JUMP JUMPDEST SWAP3 POP POP PUSH1 0x60 DUP6 ADD CALLDATALOAD PUSH8 0xFFFFFFFFFFFFFFFF DUP2 GT ISZERO PUSH2 0x9B5 JUMPI PUSH2 0x9B4 PUSH2 0x6CF JUMP JUMPDEST JUMPDEST PUSH2 0x9C1 DUP8 DUP3 DUP9 ADD PUSH2 0x920 JUMP JUMPDEST SWAP2 POP POP SWAP3 SWAP6 SWAP2 SWAP5 POP SWAP3 POP JUMP JUMPDEST PUSH2 0x9D6 DUP2 PUSH2 0x6F2 JUMP JUMPDEST DUP3 MSTORE POP POP JUMP JUMPDEST PUSH0 PUSH1 0x20 DUP3 ADD SWAP1 POP PUSH2 0x9EF PUSH0 DUP4 ADD DUP5 PUSH2 0x9CD JUMP JUMPDEST SWAP3 SWAP2 POP POP JUMP JUMPDEST PUSH2 0x9FE DUP2 PUSH2 0x758 JUMP JUMPDEST DUP2 EQ PUSH2 0xA08 JUMPI PUSH0 DUP1 REVERT JUMPDEST POP JUMP JUMPDEST PUSH0 DUP2 MLOAD SWAP1 POP PUSH2 0xA19 DUP2 PUSH2 0x9F5 JUMP JUMPDEST SWAP3 SWAP2 POP POP JUMP JUMPDEST PUSH0 PUSH1 0x20 DUP3 DUP5 SUB SLT ISZERO PUSH2 0xA34 JUMPI PUSH2 0xA33 PUSH2 0x6CB JUMP JUMPDEST JUMPDEST PUSH0 PUSH2 0xA41 DUP5 DUP3 DUP6 ADD PUSH2 0xA0B JUMP JUMPDEST SWAP2 POP POP SWAP3 SWAP2 POP POP JUMP JUMPDEST PUSH0 DUP2 SWAP1 POP SWAP2 SWAP1 POP JUMP JUMPDEST PUSH0 PUSH2 0xA6D PUSH2 0xA68 PUSH2 0xA63 DUP5 PUSH2 0xA4A JUMP JUMPDEST PUSH2 0x789 JUMP JUMPDEST PUSH2 0x758 JUMP JUMPDEST SWAP1 POP SWAP2 SWAP1 POP JUMP JUMPDEST PUSH2 0xA7D DUP2 PUSH2 0xA53 JUMP JUMPDEST DUP3 MSTORE POP POP JUMP JUMPDEST PUSH0 PUSH1 0x60 DUP3 ADD SWAP1 POP PUSH2 0xA96 PUSH0 DUP4 ADD DUP7 PUSH2 0x9CD JUMP JUMPDEST PUSH2 0xAA3 PUSH1 0x20 DUP4 ADD DUP6 PUSH2 0x9CD JUMP JUMPDEST PUSH2 0xAB0 PUSH1 0x40 DUP4 ADD DUP5 PUSH2 0xA74 JUMP JUMPDEST SWAP5 SWAP4 POP POP POP POP JUMP JUMPDEST PUSH0 DUP2 ISZERO ISZERO SWAP1 POP SWAP2 SWAP1 POP JUMP JUMPDEST PUSH2 0xACC DUP2 PUSH2 0xAB8 JUMP JUMPDEST DUP2 EQ PUSH2 0xAD6 JUMPI PUSH0 DUP1 REVERT JUMPDEST POP JUMP JUMPDEST PUSH0 DUP2 MLOAD SWAP1 POP PUSH2 0xAE7 DUP2 PUSH2 0xAC3 JUMP JUMPDEST SWAP3 SWAP2 POP POP JUMP JUMPDEST PUSH0 PUSH1 0x20 DUP3 DUP5 SUB SLT ISZERO PUSH2 0xB02 JUMPI PUSH2 0xB01 PUSH2 0x6CB JUMP JUMPDEST JUMPDEST PUSH0 PUSH2 0xB0F DUP5 DUP3 DUP6 ADD PUSH2 0xAD9 JUMP JUMPDEST SWAP2 POP POP SWAP3 SWAP2 POP POP JUMP JUMPDEST PUSH0 DUP2 SWAP1 POP SWAP2 SWAP1 POP JUMP JUMPDEST PUSH0 PUSH2 0xB3B PUSH2 0xB36 PUSH2 0xB31 DUP5 PUSH2 0xB18 JUMP JUMPDEST PUSH2 0x789 JUMP JUMPDEST PUSH2 0x758 JUMP JUMPDEST SWAP1 POP SWAP2 SWAP1 POP JUMP JUMPDEST PUSH2 0xB4B DUP2 PUSH2 0xB21 JUMP JUMPDEST DUP3 MSTORE POP POP JUMP JUMPDEST PUSH0 PUSH1 0x60 DUP3 ADD SWAP1 POP PUSH2 0xB64 PUSH0 DUP4 ADD DUP7 PUSH2 0x9CD JUMP JUMPDEST PUSH2 0xB71 PUSH1 0x20 DUP4 ADD DUP6 PUSH2 0x9CD JUMP JUMPDEST PUSH2 0xB7E PUSH1 0x40 DUP4 ADD DUP5 PUSH2 0xB42 JUMP JUMPDEST SWAP5 SWAP4 POP POP POP POP JUMP JUMPDEST PUSH0 DUP2 SWAP1 POP SWAP2 SWAP1 POP JUMP JUMPDEST PUSH0 PUSH2 0xBA9 PUSH2 0xBA4 PUSH2 0xB9F DUP5 PUSH2 0xB86 JUMP JUMPDEST PUSH2 0x789 JUMP JUMPDEST PUSH2 0x758 JUMP JUMPDEST SWAP1 POP SWAP2 SWAP1 POP JUMP JUMPDEST PUSH2 0xBB9 DUP2 PUSH2 0xB8F JUMP JUMPDEST DUP3 MSTORE POP POP JUMP JUMPDEST PUSH0 PUSH1 0x60 DUP3 ADD SWAP1 POP PUSH2 0xBD2 PUSH0 DUP4 ADD DUP7 PUSH2 0x9CD JUMP JUMPDEST PUSH2 0xBDF PUSH1 0x20 DUP4 ADD DUP6 PUSH2 0x9CD JUMP JUMPDEST PUSH2 0xBEC PUSH1 0x40 DUP4 ADD DUP5 PUSH2 0xBB0 JUMP JUMPDEST SWAP5 SWAP4 POP POP POP POP JUMP JUMPDEST PUSH32 0x4E487B7100000000000000000000000000000000000000000000000000000000 PUSH0 MSTORE PUSH1 0x32 PUSH1 0x4 MSTORE PUSH1 0x24 PUSH0 REVERT JUMPDEST PUSH0 DUP2 SWAP1 POP SWAP2 SWAP1 POP JUMP JUMPDEST PUSH0 PUSH2 0xC44 PUSH2 0xC3F PUSH2 0xC3A DUP5 PUSH2 0xC21 JUMP JUMPDEST PUSH2 0x789 JUMP JUMPDEST PUSH2 0x758 JUMP JUMPDEST SWAP1 POP SWAP2 SWAP1 POP JUMP JUMPDEST PUSH2 0xC54 DUP2 PUSH2 0xC2A JUMP JUMPDEST DUP3 MSTORE POP POP JUMP JUMPDEST PUSH0 PUSH1 0x60 DUP3 ADD SWAP1 POP PUSH2 0xC6D PUSH0 DUP4 ADD DUP7 PUSH2 0x9CD JUMP JUMPDEST PUSH2 0xC7A PUSH1 0x20 DUP4 ADD DUP6 PUSH2 0x9CD JUMP JUMPDEST PUSH2 0xC87 PUSH1 0x40 DUP4 ADD DUP5 PUSH2 0xC4B JUMP JUMPDEST SWAP5 SWAP4 POP POP POP POP JUMP INVALID LOG2 PUSH5 0x6970667358 0x22 SLT KECCAK256 0x2E JUMPDEST 0xF7 0x4F PUSH15 0xDFF9F9A7E578986EE47CDB608EB959 MULMOD DUP8 EXTCODECOPY 0xEE 0x4D 0xE4 LOG2 0x22 SAR MUL 0x4F AND PUSH5 0x736F6C6343 STOP ADDMOD NOT STOP CALLER "
				},
				"gasEstimates": {
					"creation": {
						"codeDepositCost": "653800",
						"executionCost": "infinite",
						"totalCost": "infinite"
					},
					"external": {
						"distributeTokens(address,address,address,address[])": "infinite",
						"educationalToken()": "infinite",
						"getStudentBalance(address)": "infinite",
						"owner()": "2581",
						"renounceOwnership()": "infinite",
						"transferOwnership(address)": "infinite"
					}
				},
				"methodIdentifiers": {
					"distributeTokens(address,address,address,address[])": "52bc412e",
					"educationalToken()": "489f67de",
					"getStudentBalance(address)": "08b9ddd8",
					"owner()": "8da5cb5b",
					"renounceOwnership()": "715018a6",
					"transferOwnership(address)": "f2fde38b"
				}
			},
			"storageLayout": {
				"storage": [
					{
						"astId": 35,
						"contract": "TokenDistributor_flattened.sol:TokenDistributor",
						"label": "_owner",
						"offset": 0,
						"slot": "0",
						"type": "t_address"
					},
					{
						"astId": 3676,
						"contract": "TokenDistributor_flattened.sol:TokenDistributor",
						"label": "educationalToken",
						"offset": 0,
						"slot": "1",
						"type": "t_contract(IERC20)3667"
					}
				],
				"types": {
					"t_address": {
						"encoding": "inplace",
						"label": "address",
						"numberOfBytes": "20"
					},
					"t_contract(IERC20)3667": {
						"encoding": "inplace",
						"label": "contract IERC20",
						"numberOfBytes": "20"
					}
				}
			},
			"userdoc": {
				"kind": "user",
				"methods": {},
				"version": 1
			}
		}
	}
}